{
  "contractName": "CollectionFactory",
  "abi": [
    {
      "inputs": [
        {
          "internalType": "uint256",
          "name": "price_",
          "type": "uint256"
        }
      ],
      "stateMutability": "nonpayable",
      "type": "constructor"
    },
    {
      "anonymous": false,
      "inputs": [
        {
          "indexed": true,
          "internalType": "address",
          "name": "creator",
          "type": "address"
        },
        {
          "indexed": true,
          "internalType": "address",
          "name": "contractAddress",
          "type": "address"
        },
        {
          "indexed": true,
          "internalType": "string",
          "name": "metaData",
          "type": "string"
        }
      ],
      "name": "CollectionCreated",
      "type": "event"
    },
    {
      "anonymous": false,
      "inputs": [
        {
          "indexed": true,
          "internalType": "address",
          "name": "previousOwner",
          "type": "address"
        },
        {
          "indexed": true,
          "internalType": "address",
          "name": "newOwner",
          "type": "address"
        }
      ],
      "name": "OwnershipTransferred",
      "type": "event"
    },
    {
      "inputs": [],
      "name": "owner",
      "outputs": [
        {
          "internalType": "address",
          "name": "",
          "type": "address"
        }
      ],
      "stateMutability": "view",
      "type": "function",
      "constant": true
    },
    {
      "inputs": [],
      "name": "renounceOwnership",
      "outputs": [],
      "stateMutability": "nonpayable",
      "type": "function"
    },
    {
      "inputs": [
        {
          "internalType": "address",
          "name": "newOwner",
          "type": "address"
        }
      ],
      "name": "transferOwnership",
      "outputs": [],
      "stateMutability": "nonpayable",
      "type": "function"
    },
    {
      "inputs": [
        {
          "internalType": "uint256",
          "name": "newPrice_",
          "type": "uint256"
        }
      ],
      "name": "setPrice",
      "outputs": [],
      "stateMutability": "nonpayable",
      "type": "function"
    },
    {
      "inputs": [],
      "name": "getPrice",
      "outputs": [
        {
          "internalType": "uint256",
          "name": "",
          "type": "uint256"
        }
      ],
      "stateMutability": "view",
      "type": "function",
      "constant": true
    },
    {
      "inputs": [],
      "name": "retrieveBalance",
      "outputs": [],
      "stateMutability": "nonpayable",
      "type": "function"
    },
    {
      "inputs": [
        {
          "internalType": "string",
          "name": "name_",
          "type": "string"
        },
        {
          "internalType": "string",
          "name": "symbol_",
          "type": "string"
        },
        {
          "internalType": "string",
          "name": "metaData",
          "type": "string"
        }
      ],
      "name": "createCollection",
      "outputs": [],
      "stateMutability": "payable",
      "type": "function",
      "payable": true
    },
    {
      "inputs": [
        {
          "internalType": "address",
          "name": "contractAddress",
          "type": "address"
        },
        {
          "internalType": "string",
          "name": "newHash",
          "type": "string"
        }
      ],
      "name": "editMetaData",
      "outputs": [],
      "stateMutability": "nonpayable",
      "type": "function"
    },
    {
      "inputs": [],
      "name": "getUserCollections",
      "outputs": [
        {
          "components": [
            {
              "internalType": "address",
              "name": "contractAddress",
              "type": "address"
            },
            {
              "internalType": "string",
              "name": "metaDataHash",
              "type": "string"
            },
            {
              "internalType": "address",
              "name": "creator",
              "type": "address"
            }
          ],
          "internalType": "struct CollectionFactory.collectionInfo[]",
          "name": "",
          "type": "tuple[]"
        }
      ],
      "stateMutability": "view",
      "type": "function",
      "constant": true
    },
    {
      "inputs": [],
      "name": "totalCollections",
      "outputs": [
        {
          "internalType": "uint256",
          "name": "",
          "type": "uint256"
        }
      ],
      "stateMutability": "view",
      "type": "function",
      "constant": true
    },
    {
      "inputs": [
        {
          "internalType": "uint256",
          "name": "startIndex",
          "type": "uint256"
        },
        {
          "internalType": "uint256",
          "name": "endIndex",
          "type": "uint256"
        }
      ],
      "name": "getCollectionsPaginated",
      "outputs": [
        {
          "components": [
            {
              "internalType": "address",
              "name": "contractAddress",
              "type": "address"
            },
            {
              "internalType": "string",
              "name": "metaDataHash",
              "type": "string"
            },
            {
              "internalType": "address",
              "name": "creator",
              "type": "address"
            }
          ],
          "internalType": "struct CollectionFactory.collectionInfo[]",
          "name": "",
          "type": "tuple[]"
        },
        {
          "internalType": "bool",
          "name": "",
          "type": "bool"
        }
      ],
      "stateMutability": "view",
      "type": "function",
      "constant": true
    }
  ],
  "bytecode": "0x608060405234801561001057600080fd5b50604051613c64380380613c6483398101604081905261002f916100ad565b610051610043640100000000610059810204565b64010000000061005d810204565b6002556100c5565b3390565b60008054600160a060020a03838116600160a060020a0319831681178455604051919092169283917f8be0079c531659141344cd1fd0a4f28419497f9722a3daafe3b4186f6b6457e09190a35050565b6000602082840312156100be578081fd5b5051919050565b613b90806100d46000396000f3fe608060405260043610620000c7576000357c01000000000000000000000000000000000000000000000000000000009004806398d5fdca116200008a57806398d5fdca1462000197578063a49dac5414620001af578063d79bd49914620001d6578063ece86c2114620001ee578063f2fde38b1462000205578063fa6cabee146200022a57620000c7565b80635df44c9214620000cc57806361d9db2d146200010a578063715018a614620001315780638da5cb5b146200014b57806391b7f5ed1462000172575b600080fd5b348015620000d957600080fd5b50620000f1620000eb36600462000ea2565b6200024f565b6040516200010192919062000fff565b60405180910390f35b3480156200011757600080fd5b506200012262000484565b6040516200010191906200124c565b3480156200013e57600080fd5b506200014962000497565b005b3480156200015857600080fd5b5062000163620004ee565b60405162000101919062000fd6565b3480156200017f57600080fd5b50620001496200019136600462000e89565b620004fd565b348015620001a457600080fd5b50620001226200054b565b348015620001bc57600080fd5b50620001c762000551565b60405162000101919062000fea565b348015620001e357600080fd5b506200014962000763565b62000149620001ff36600462000de9565b620007f2565b3480156200021257600080fd5b50620001496200022436600462000d6e565b62000a19565b3480156200023757600080fd5b50620001496200024936600462000d92565b62000a99565b6060600083831015620002825760405160e560020a62461bcd0281526004016200027990620011ef565b60405180910390fd5b600062000290858562001270565b6200029d90600162001255565b905060008167ffffffffffffffff811115620002cc5760e060020a634e487b7102600052604160045260246000fd5b6040519080825280602002602001820160405280156200030957816020015b620002f562000baf565b815260200190600190039081620002eb5790505b5090506000865b8681116200044a576000818152600560209081526040918290208251606081019093528054600160a060020a03168352600181018054919284019162000356906200128a565b80601f016020809104026020016040519081016040528092919081815260200182805462000384906200128a565b8015620003d55780601f10620003a957610100808354040283529160200191620003d5565b820191906000526020600020905b815481529060010190602001808311620003b757829003601f168201915b505050918352505060029190910154600160a060020a03166020909101528351849084908110620004195760e060020a634e487b7102600052603260045260246000fd5b602002602001018190525081806200043190620012ca565b92505080806200044190620012ca565b91505062000310565b5062000457600162000b3d565b8610156200046e57509250600091506200047d9050565b509250600191506200047d9050565b9250929050565b600062000492600162000b3d565b905090565b620004a162000b45565b600160a060020a0316620004b4620004ee565b600160a060020a031614620004e05760405160e560020a62461bcd02815260040162000279906200115d565b620004ec600062000b49565b565b600054600160a060020a031690565b6200050762000b45565b600160a060020a03166200051a620004ee565b600160a060020a031614620005465760405160e560020a62461bcd02815260040162000279906200115d565b600255565b60025490565b336000908152600360205260408120546060918167ffffffffffffffff8111156200058f5760e060020a634e487b7102600052604160045260246000fd5b604051908082528060200260200182016040528015620005cc57816020015b620005b862000baf565b815260200190600190039081620005ae5790505b50905060005b828110156200075c573360009081526003602052604081208054600592919084908110620006135760e060020a634e487b7102600052603260045260246000fd5b906000526020600020015481526020019081526020016000206040518060600160405290816000820160009054906101000a9004600160a060020a0316600160a060020a0316600160a060020a0316815260200160018201805462000678906200128a565b80601f0160208091040260200160405190810160405280929190818152602001828054620006a6906200128a565b8015620006f75780601f10620006cb57610100808354040283529160200191620006f7565b820191906000526020600020905b815481529060010190602001808311620006d957829003601f168201915b505050918352505060029190910154600160a060020a031660209091015282518390839081106200073b5760e060020a634e487b7102600052603260045260246000fd5b602002602001018190525080806200075390620012ca565b915050620005d2565b5091505090565b6200076d62000b45565b600160a060020a031662000780620004ee565b600160a060020a031614620007ac5760405160e560020a62461bcd02815260040162000279906200115d565b620007b6620004ee565b604051600160a060020a039190911690303180156108fc02916000818181858888f19350505050158015620007ef573d6000803e3d6000fd5b50565b6002543410156200081a5760405160e560020a62461bcd028152600401620002799062001192565b62000826600162000ba6565b600086868686336040516200083b9062000be2565b6200084b95949392919062001025565b604051809103906000f08015801562000868573d6000803e3d6000fd5b5090506000604051806060016040528083600160a060020a0316815260200185858080601f01602080910402602001604051908101604052809392919081815260200183838082843760009201829052509385525050336020938401819052825250600390915260409020909150620008e2600162000b3d565b8154600181810184556000938452602084209091019190915582916005916200090b9062000b3d565b81526020808201929092526040016000208251815473ffffffffffffffffffffffffffffffffffffffff1916600160a060020a039091161781558282015180519192620009619260018501929091019062000bf0565b50604091909101516002909101805473ffffffffffffffffffffffffffffffffffffffff1916600160a060020a03909216919091179055620009a4600162000b3d565b600160a060020a038316600090815260046020526040908190209190915551620009d2908590859062000fc6565b60405190819003812090600160a060020a0384169033907fa9a63cb75fdf6f638d49c249df7d5b94dd8bb8ac664ca12da7339862b9dd87ae90600090a45050505050505050565b62000a2362000b45565b600160a060020a031662000a36620004ee565b600160a060020a03161462000a625760405160e560020a62461bcd02815260040162000279906200115d565b600160a060020a03811662000a8e5760405160e560020a62461bcd02815260040162000279906200106c565b620007ef8162000b49565b600160a060020a03831660009081526004602052604090205462000ad45760405160e560020a62461bcd028152600401620002799062001100565b600160a060020a038084166000908152600460209081526040808320548352600590915290206002810154909116331462000b265760405160e560020a62461bcd0281526004016200027990620010c9565b62000b3660018201848462000c7f565b5050505050565b80545b919050565b3390565b60008054600160a060020a0383811673ffffffffffffffffffffffffffffffffffffffff19831681178455604051919092169283917f8be0079c531659141344cd1fd0a4f28419497f9722a3daafe3b4186f6b6457e09190a35050565b80546001019055565b60405180606001604052806000600160a060020a03168152602001606081526020016000600160a060020a031681525090565b612859806200130283390190565b82805462000bfe906200128a565b90600052602060002090601f01602090048101928262000c22576000855562000c6d565b82601f1062000c3d57805160ff191683800117855562000c6d565b8280016001018555821562000c6d579182015b8281111562000c6d57825182559160200191906001019062000c50565b5062000c7b92915062000cfc565b5090565b82805462000c8d906200128a565b90600052602060002090601f01602090048101928262000cb1576000855562000c6d565b82601f1062000ccc5782800160ff1982351617855562000c6d565b8280016001018555821562000c6d579182015b8281111562000c6d57823582559160200191906001019062000cdf565b5b8082111562000c7b576000815560010162000cfd565b8035600160a060020a038116811462000b4057600080fd5b60008083601f84011262000d3d578182fd5b50813567ffffffffffffffff81111562000d55578182fd5b6020830191508360208285010111156200047d57600080fd5b60006020828403121562000d80578081fd5b62000d8b8262000d13565b9392505050565b60008060006040848603121562000da7578182fd5b62000db28462000d13565b9250602084013567ffffffffffffffff81111562000dce578283fd5b62000ddc8682870162000d2b565b9497909650939450505050565b6000806000806000806060878903121562000e02578182fd5b863567ffffffffffffffff8082111562000e1a578384fd5b62000e288a838b0162000d2b565b9098509650602089013591508082111562000e41578384fd5b62000e4f8a838b0162000d2b565b9096509450604089013591508082111562000e68578384fd5b5062000e7789828a0162000d2b565b979a9699509497509295939492505050565b60006020828403121562000e9b578081fd5b5035919050565b6000806040838503121562000eb5578182fd5b50508035926020909101359150565b600160a060020a03169052565b60008282518085526020808601955080818302840101818601855b8481101562000f8f57601f1980878503018a5282516060600160a060020a038251168652868201518188880152805180838901528b92505b8083101562000f4457818301890151888401608001529188019162000f24565b8083111562000f56578b6080828a0101525b60409384015193925062000f6d8884018562000ec4565b9c88019c601f0190931695909501608001945050509083019060010162000eec565b5090979650505050505050565b60008284528282602086013780602084860101526020601f19601f85011685010190509392505050565b6000828483379101908152919050565b600160a060020a0391909116815260200190565b60006020825262000d8b602083018462000ed1565b60006040825262001014604083018562000ed1565b905082151560208301529392505050565b6000606082526200103b60608301878962000f9c565b82810360208401526200105081868862000f9c565b915050600160a060020a03831660408301529695505050505050565b60208082526026908201527f4f776e61626c653a206e6577206f776e657220697320746865207a65726f206160408201527f6464726573730000000000000000000000000000000000000000000000000000606082015260800190565b6020808252601e908201527f4f6e6c792063726561746f722063616e2065646974206d657461446174610000604082015260600190565b6020808252602a908201527f436f6e747261637420646f65736e277420657869737420696e2073636f70652060408201527f6f6620466163746f727900000000000000000000000000000000000000000000606082015260800190565b6020808252818101527f4f776e61626c653a2063616c6c6572206973206e6f7420746865206f776e6572604082015260600190565b60208082526024908201527f52656566526f79616c74793a205061792074686520726571756972656420616d60408201527f6f756e7400000000000000000000000000000000000000000000000000000000606082015260800190565b6020808252603a908201527f456e6420496e646578206e6565647320746f206265206772656174657220746860408201527f616e206f7220657175616c20746f20737461727420496e646578000000000000606082015260800190565b90815260200190565b600082198211156200126b576200126b620012e8565b500190565b600082821015620012855762001285620012e8565b500390565b6002810460018216806200129f57607f821691505b60208210811415620012c45760e060020a634e487b7102600052602260045260246000fd5b50919050565b6000600019821415620012e157620012e1620012e8565b5060010190565b60e060020a634e487b7102600052601160045260246000fdfe60806040523480156200001157600080fd5b506040516200285938038062002859833981016040819052620000349162000265565b82826200005c6200004d640100000000620000b8810204565b640100000000620000bc810204565b600180558151620000759060029060208501906200010c565b5080516200008b9060039060208401906200010c565b5050600d8054600160a060020a031916600160a060020a0393909316929092179091555062000373915050565b3390565b60008054600160a060020a03838116600160a060020a0319831681178455604051919092169283917f8be0079c531659141344cd1fd0a4f28419497f9722a3daafe3b4186f6b6457e09190a35050565b8280546200011a90620002ee565b90600052602060002090601f0160209004810192826200013e576000855562000189565b82601f106200015957805160ff191683800117855562000189565b8280016001018555821562000189579182015b82811115620001895782518255916020019190600101906200016c565b50620001979291506200019b565b5090565b5b808211156200019757600081556001016200019c565b600082601f830112620001c3578081fd5b81516001604060020a0380821115620001e057620001e062000344565b604051601f8301601f19908116603f011681019082821181831017156200020b576200020b62000344565b8160405283815260209250868385880101111562000227578485fd5b8491505b838210156200024a57858201830151818301840152908201906200022b565b838211156200025b57848385830101525b9695505050505050565b6000806000606084860312156200027a578283fd5b83516001604060020a038082111562000291578485fd5b6200029f87838801620001b2565b94506020860151915080821115620002b5578384fd5b50620002c486828701620001b2565b60408601519093509050600160a060020a0381168114620002e3578182fd5b809150509250925092565b6002810460018216806200030357607f821691505b602082108114156200033e577f4e487b7100000000000000000000000000000000000000000000000000000000600052602260045260246000fd5b50919050565b7f4e487b7100000000000000000000000000000000000000000000000000000000600052604160045260246000fd5b6124d680620003836000396000f3fe60806040526004361061016c576000357c0100000000000000000000000000000000000000000000000000000000900480634f6ccce7116100d357806395d89b411161008c57806395d89b41146103c3578063a22cb465146103d8578063b88d4fde146103f8578063c87b56dd14610418578063e985e9c514610438578063f2fde38b1461045857610173565b80634f6ccce7146103195780636352211e1461033957806370a0823114610359578063715018a614610379578063833b7b781461038e5780638da5cb5b146103ae57610173565b806318160ddd1161012557806318160ddd1461025457806323b872dd146102765780632a55205a146102965780632f745c59146102c45780633ccfd60b146102e457806342842e0e146102f957610173565b806301ffc9a714610178578063056b01ce146101ae57806306fdde03146101d0578063081812fc146101f2578063095ea7b31461021f5780630ee2cb101461023f57610173565b3661017357005b600080fd5b34801561018457600080fd5b50610198610193366004611a70565b610478565b6040516101a59190611c18565b60405180910390f35b3480156101ba57600080fd5b506101ce6101c9366004611aa8565b610526565b005b3480156101dc57600080fd5b506101e56105d1565b6040516101a59190611c23565b3480156101fe57600080fd5b5061021261020d366004611b1b565b610663565b6040516101a59190611baf565b34801561022b57600080fd5b506101ce61023a366004611a47565b6106a9565b34801561024b57600080fd5b50610212610747565b34801561026057600080fd5b50610269610756565b6040516101a5919061233b565b34801561028257600080fd5b506101ce6102913660046118fd565b61075c565b3480156102a257600080fd5b506102b66102b1366004611b33565b610797565b6040516101a5929190611bff565b3480156102d057600080fd5b506102696102df366004611a47565b6107d5565b3480156102f057600080fd5b506101ce61082a565b34801561030557600080fd5b506101ce6103143660046118fd565b610894565b34801561032557600080fd5b50610269610334366004611b1b565b6108af565b34801561034557600080fd5b50610212610354366004611b1b565b610910565b34801561036557600080fd5b506102696103743660046118ba565b610948565b34801561038557600080fd5b506101ce61098f565b34801561039a57600080fd5b506102696103a9366004611b1b565b6109dd565b3480156103ba57600080fd5b506102126109ef565b3480156103cf57600080fd5b506101e56109fe565b3480156103e457600080fd5b506101ce6103f3366004611a0d565b610a0d565b34801561040457600080fd5b506101ce610413366004611938565b610a23565b34801561042457600080fd5b506101e5610433366004611b1b565b610a65565b34801561044457600080fd5b506101986104533660046118d4565b610a70565b34801561046457600080fd5b506101ce6104733660046118ba565b610a9e565b6000600160e060020a031982167f80ac58cd0000000000000000000000000000000000000000000000000000000014806104db5750600160e060020a031982167f780e9d6300000000000000000000000000000000000000000000000000000000145b8061050f5750600160e060020a031982167f2a55205a00000000000000000000000000000000000000000000000000000000145b8061051e575061051e82610b12565b90505b919050565b600d54600160a060020a0316331461055c5760405160e560020a62461bcd02815260040161055390611f2f565b60405180910390fd5b610566600e610b50565b6000610572600e610b59565b905061057e3382610b5d565b6105be8185858080601f016020809104026020016040519081016040528093929190818152602001838380828437600092019190915250610c5792505050565b6000908152600f60205260409020555050565b6060600280546105e0906123d2565b80601f016020809104026020016040519081016040528092919081815260200182805461060c906123d2565b80156106595780601f1061062e57610100808354040283529160200191610659565b820191906000526020600020905b81548152906001019060200180831161063c57829003601f168201915b5050505050905090565b600061066e82610c9e565b61068d5760405160e560020a62461bcd02815260040161055390612135565b50600090815260066020526040902054600160a060020a031690565b60006106b482610910565b905080600160a060020a031683600160a060020a031614156106eb5760405160e560020a62461bcd02815260040161055390612224565b80600160a060020a03166106fd610cbb565b600160a060020a03161480610719575061071981610453610cbb565b6107385760405160e560020a62461bcd02815260040161055390611ed2565b6107428383610cbf565b505050565b600d54600160a060020a031690565b600a5490565b61076d610767610cbb565b82610d3a565b61078c5760405160e560020a62461bcd02815260040161055390612281565b610742838383610dc2565b600d546000838152600f6020526040812054600160a060020a03909216916064906107c29085612370565b6107cc919061235c565b90509250929050565b60006107e083610948565b82106108015760405160e560020a62461bcd02815260040161055390611c36565b50600160a060020a03919091166000908152600860209081526040808320938352929052205490565b600d54600160a060020a031633146108575760405160e560020a62461bcd02815260040161055390611f2f565b600d54604051600160a060020a0390911690303180156108fc02916000818181858888f19350505050158015610891573d6000803e3d6000fd5b50565b61074283838360405180602001604052806000815250610a23565b60006108b9610756565b82106108da5760405160e560020a62461bcd028152600401610553906122de565b600a82815481106108fe5760e060020a634e487b7102600052603260045260246000fd5b90600052602060002001549050919050565b600081815260046020526040812054600160a060020a03168061051e5760405160e560020a62461bcd02815260040161055390611fe9565b6000600160a060020a0382166109735760405160e560020a62461bcd02815260040161055390611f8c565b50600160a060020a031660009081526005602052604090205490565b610997610cbb565b600160a060020a03166109a86109ef565b600160a060020a0316146109d15760405160e560020a62461bcd02815260040161055390612192565b6109db6000610f08565b565b6000908152600f602052604090205490565b600054600160a060020a031690565b6060600380546105e0906123d2565b610a1f610a18610cbb565b8383610f65565b5050565b610a34610a2e610cbb565b83610d3a565b610a535760405160e560020a62461bcd02815260040161055390612281565b610a5f8484848461100b565b50505050565b606061051e82611041565b600160a060020a03918216600090815260076020908152604080832093909416825291909152205460ff1690565b610aa6610cbb565b600160a060020a0316610ab76109ef565b600160a060020a031614610ae05760405160e560020a62461bcd02815260040161055390612192565b600160a060020a038116610b095760405160e560020a62461bcd02815260040161055390611cf0565b61089181610f08565b6000600160e060020a031982167f780e9d6300000000000000000000000000000000000000000000000000000000148061051e575061051e8261115d565b80546001019055565b5490565b600160a060020a038216610b865760405160e560020a62461bcd028152600401610553906120a3565b610b8f81610c9e565b15610baf5760405160e560020a62461bcd02815260040161055390611daa565b610bbb600083836111cf565b600160a060020a0382166000908152600560205260408120805460019290610be4908490612344565b9091555050600081815260046020526040808220805473ffffffffffffffffffffffffffffffffffffffff1916600160a060020a03861690811790915590518392907fddf252ad1be2c89b69c2b068fc378daa952ba7f163c4a11628f55a4df523b3ef908290a4610a1f60008383610742565b610c6082610c9e565b610c7f5760405160e560020a62461bcd02815260040161055390612046565b6000828152600c6020908152604090912082516107429284019061180a565b600090815260046020526040902054600160a060020a0316151590565b3390565b6000818152600660205260409020805473ffffffffffffffffffffffffffffffffffffffff1916600160a060020a0384169081179091558190610d0182610910565b600160a060020a03167f8c5be1e5ebec7d5bd14f71427d1e84f3dd0314c0f7b2291e5b200ac8c7c3b92560405160405180910390a45050565b6000610d4582610c9e565b610d645760405160e560020a62461bcd02815260040161055390611e75565b6000610d6f83610910565b905080600160a060020a031684600160a060020a03161480610daa575083600160a060020a0316610d9f84610663565b600160a060020a0316145b80610dba5750610dba8185610a70565b949350505050565b82600160a060020a0316610dd582610910565b600160a060020a031614610dfe5760405160e560020a62461bcd02815260040161055390611d4d565b600160a060020a038216610e275760405160e560020a62461bcd02815260040161055390611de1565b610e328383836111cf565b610e3d600082610cbf565b600160a060020a0383166000908152600560205260408120805460019290610e6690849061238f565b9091555050600160a060020a0382166000908152600560205260408120805460019290610e94908490612344565b9091555050600081815260046020526040808220805473ffffffffffffffffffffffffffffffffffffffff1916600160a060020a0386811691821790925591518493918716917fddf252ad1be2c89b69c2b068fc378daa952ba7f163c4a11628f55a4df523b3ef91a4610742838383610742565b60008054600160a060020a0383811673ffffffffffffffffffffffffffffffffffffffff19831681178455604051919092169283917f8be0079c531659141344cd1fd0a4f28419497f9722a3daafe3b4186f6b6457e09190a35050565b81600160a060020a031683600160a060020a03161415610f9a5760405160e560020a62461bcd02815260040161055390611e3e565b600160a060020a0383811660008181526007602090815260408083209487168084529490915290819020805460ff1916851515179055517f17307eab39ab6107e8899845ad3d59bd9653f200f220920489ca2b5937696c3190610ffe908590611c18565b60405180910390a3505050565b611016848484610dc2565b611022848484846111da565b610a5f5760405160e560020a62461bcd02815260040161055390611c93565b606061104c82610c9e565b61106b5760405160e560020a62461bcd028152600401610553906120d8565b6000828152600c602052604081208054611084906123d2565b80601f01602080910402602001604051908101604052809291908181526020018280546110b0906123d2565b80156110fd5780601f106110d2576101008083540402835291602001916110fd565b820191906000526020600020905b8154815290600101906020018083116110e057829003601f168201915b50505050509050600061110e61132d565b905080516000141561112257509050610521565b81511561115457808260405160200161113c929190611b80565b60405160208183030381529060405292505050610521565b610dba8461133f565b6000600160e060020a031982167f80ac58cd0000000000000000000000000000000000000000000000000000000014806111c05750600160e060020a031982167f5b5e139f00000000000000000000000000000000000000000000000000000000145b8061051e575061051e826113c5565b6107428383836113f7565b60006111ee84600160a060020a0316611480565b156113225783600160a060020a031663150b7a0261120a610cbb565b8786866040518563ffffffff167c01000000000000000000000000000000000000000000000000000000000281526004016112489493929190611bc3565b602060405180830381600087803b15801561126257600080fd5b505af1925050508015611292575060408051601f3d908101601f1916820190925261128f91810190611a8c565b60015b6112ef573d8080156112c0576040519150601f19603f3d011682016040523d82523d6000602084013e6112c5565b606091505b5080516112e75760405160e560020a62461bcd02815260040161055390611c93565b805181602001fd5b600160e060020a0319167f150b7a0200000000000000000000000000000000000000000000000000000000149050610dba565b506001949350505050565b60408051602081019091526000815290565b606061134a82610c9e565b6113695760405160e560020a62461bcd028152600401610553906121c7565b600061137361132d565b9050600081511161139357604051806020016040528060008152506113be565b8061139d8461148f565b6040516020016113ae929190611b80565b6040516020818303038152906040525b9392505050565b600160e060020a031981167f01ffc9a70000000000000000000000000000000000000000000000000000000014919050565b611402838383610742565b600160a060020a03831661141e5761141981611603565b611441565b81600160a060020a031683600160a060020a031614611441576114418382611647565b600160a060020a03821661145d57611458816116e4565b610742565b82600160a060020a031682600160a060020a0316146107425761074282826117c6565b600160a060020a03163b151590565b6060816114d0575060408051808201909152600181527f30000000000000000000000000000000000000000000000000000000000000006020820152610521565b8160005b81156114fa57806114e481612410565b91506114f39050600a8361235c565b91506114d4565b60008167ffffffffffffffff8111156115265760e060020a634e487b7102600052604160045260246000fd5b6040519080825280601f01601f191660200182016040528015611550576020820181803683370190505b5090505b8415610dba5761156560018361238f565b9150611572600a8661242b565b61157d906030612344565b7f0100000000000000000000000000000000000000000000000000000000000000028183815181106115c25760e060020a634e487b7102600052603260045260246000fd5b60200101907effffffffffffffffffffffffffffffffffffffffffffffffffffffffffffff1916908160001a9053506115fc600a8661235c565b9450611554565b600a80546000838152600b60205260408120829055600182018355919091527fc65a7bb8d6351c1cf70c95a316cc6a92839c986682d98bc35f958f4883f9d2a80155565b6000600161165484610948565b61165e919061238f565b6000838152600960205260409020549091508082146116b157600160a060020a03841660009081526008602090815260408083208584528252808320548484528184208190558352600990915290208190555b506000918252600960209081526040808420849055600160a060020a039094168352600881528383209183525290812055565b600a546000906116f69060019061238f565b6000838152600b6020526040812054600a805493945090928490811061172f5760e060020a634e487b7102600052603260045260246000fd5b9060005260206000200154905080600a83815481106117615760e060020a634e487b7102600052603260045260246000fd5b6000918252602080832090910192909255828152600b9091526040808220849055858252812055600a8054806117aa5760e060020a634e487b7102600052603160045260246000fd5b6001900381819060005260206000200160009055905550505050565b60006117d183610948565b600160a060020a039093166000908152600860209081526040808320868452825280832085905593825260099052919091209190915550565b828054611816906123d2565b90600052602060002090601f016020900481019282611838576000855561187e565b82601f1061185157805160ff191683800117855561187e565b8280016001018555821561187e579182015b8281111561187e578251825591602001919060010190611863565b5061188a92915061188e565b5090565b5b8082111561188a576000815560010161188f565b8035600160a060020a038116811461052157600080fd5b6000602082840312156118cb578081fd5b6113be826118a3565b600080604083850312156118e6578081fd5b6118ef836118a3565b91506107cc602084016118a3565b600080600060608486031215611911578081fd5b61191a846118a3565b9250611928602085016118a3565b9150604084013590509250925092565b6000806000806080858703121561194d578081fd5b611956856118a3565b9350611964602086016118a3565b925060408501359150606085013567ffffffffffffffff80821115611987578283fd5b818701915087601f83011261199a578283fd5b8135818111156119ac576119ac612471565b604051601f8201601f19908116603f011681019083821181831017156119d4576119d4612471565b816040528281528a60208487010111156119ec578586fd5b82602086016020830137918201602001949094529598949750929550505050565b60008060408385031215611a1f578182fd5b611a28836118a3565b915060208301358015158114611a3c578182fd5b809150509250929050565b60008060408385031215611a59578182fd5b611a62836118a3565b946020939093013593505050565b600060208284031215611a81578081fd5b81356113be8161248a565b600060208284031215611a9d578081fd5b81516113be8161248a565b600080600060408486031215611abc578283fd5b833567ffffffffffffffff80821115611ad3578485fd5b818601915086601f830112611ae6578485fd5b813581811115611af4578586fd5b876020828501011115611b05578586fd5b6020928301989097509590910135949350505050565b600060208284031215611b2c578081fd5b5035919050565b60008060408385031215611b45578182fd5b50508035926020909101359150565b60008151808452611b6c8160208601602086016123a6565b601f01601f19169290920160200192915050565b60008351611b928184602088016123a6565b835190830190611ba68183602088016123a6565b01949350505050565b600160a060020a0391909116815260200190565b6000600160a060020a03808716835280861660208401525083604083015260806060830152611bf56080830184611b54565b9695505050505050565b600160a060020a03929092168252602082015260400190565b901515815260200190565b6000602082526113be6020830184611b54565b6020808252602b908201527f455243373231456e756d657261626c653a206f776e657220696e646578206f7560408201527f74206f6620626f756e6473000000000000000000000000000000000000000000606082015260800190565b60208082526032908201527f4552433732313a207472616e7366657220746f206e6f6e20455243373231526560408201527f63656976657220696d706c656d656e7465720000000000000000000000000000606082015260800190565b60208082526026908201527f4f776e61626c653a206e6577206f776e657220697320746865207a65726f206160408201527f6464726573730000000000000000000000000000000000000000000000000000606082015260800190565b60208082526025908201527f4552433732313a207472616e736665722066726f6d20696e636f72726563742060408201527f6f776e6572000000000000000000000000000000000000000000000000000000606082015260800190565b6020808252601c908201527f4552433732313a20746f6b656e20616c7265616479206d696e74656400000000604082015260600190565b60208082526024908201527f4552433732313a207472616e7366657220746f20746865207a65726f2061646460408201527f7265737300000000000000000000000000000000000000000000000000000000606082015260800190565b60208082526019908201527f4552433732313a20617070726f766520746f2063616c6c657200000000000000604082015260600190565b6020808252602c908201527f4552433732313a206f70657261746f7220717565727920666f72206e6f6e657860408201527f697374656e7420746f6b656e0000000000000000000000000000000000000000606082015260800190565b60208082526038908201527f4552433732313a20617070726f76652063616c6c6572206973206e6f74206f7760408201527f6e6572206e6f7220617070726f76656420666f7220616c6c0000000000000000606082015260800190565b60208082526028908201527f526f79616c747920436f6e7472616374203a2043616c6c6572206973206e6f7460408201527f2063726561746f72000000000000000000000000000000000000000000000000606082015260800190565b6020808252602a908201527f4552433732313a2062616c616e636520717565727920666f7220746865207a6560408201527f726f206164647265737300000000000000000000000000000000000000000000606082015260800190565b60208082526029908201527f4552433732313a206f776e657220717565727920666f72206e6f6e657869737460408201527f656e7420746f6b656e0000000000000000000000000000000000000000000000606082015260800190565b6020808252602e908201527f45524337323155524953746f726167653a2055524920736574206f66206e6f6e60408201527f6578697374656e7420746f6b656e000000000000000000000000000000000000606082015260800190565b6020808252818101527f4552433732313a206d696e7420746f20746865207a65726f2061646472657373604082015260600190565b60208082526031908201527f45524337323155524953746f726167653a2055524920717565727920666f722060408201527f6e6f6e6578697374656e7420746f6b656e000000000000000000000000000000606082015260800190565b6020808252602c908201527f4552433732313a20617070726f76656420717565727920666f72206e6f6e657860408201527f697374656e7420746f6b656e0000000000000000000000000000000000000000606082015260800190565b6020808252818101527f4f776e61626c653a2063616c6c6572206973206e6f7420746865206f776e6572604082015260600190565b6020808252602f908201527f4552433732314d657461646174613a2055524920717565727920666f72206e6f60408201527f6e6578697374656e7420746f6b656e0000000000000000000000000000000000606082015260800190565b60208082526021908201527f4552433732313a20617070726f76616c20746f2063757272656e74206f776e6560408201527f7200000000000000000000000000000000000000000000000000000000000000606082015260800190565b60208082526031908201527f4552433732313a207472616e736665722063616c6c6572206973206e6f74206f60408201527f776e6572206e6f7220617070726f766564000000000000000000000000000000606082015260800190565b6020808252602c908201527f455243373231456e756d657261626c653a20676c6f62616c20696e646578206f60408201527f7574206f6620626f756e64730000000000000000000000000000000000000000606082015260800190565b90815260200190565b600082198211156123575761235761243f565b500190565b60008261236b5761236b612458565b500490565b600081600019048311821515161561238a5761238a61243f565b500290565b6000828210156123a1576123a161243f565b500390565b60005b838110156123c15781810151838201526020016123a9565b83811115610a5f5750506000910152565b6002810460018216806123e657607f821691505b6020821081141561240a5760e060020a634e487b7102600052602260045260246000fd5b50919050565b60006000198214156124245761242461243f565b5060010190565b60008261243a5761243a612458565b500690565b60e060020a634e487b7102600052601160045260246000fd5b60e060020a634e487b7102600052601260045260246000fd5b60e060020a634e487b7102600052604160045260246000fd5b600160e060020a03198116811461089157600080fdfea2646970667358221220efc10cbd802cc46131a1f8656aa2ffb894773f5f90c6db879a1e1676bb9d8cec64736f6c63430008010033a2646970667358221220079fd19530a1cb897b218fe38c7ed73e0f0a86b606e42b9e4f91ab84b037fdfe64736f6c63430008010033",
  "immutableReferences": {},
  "source": "// SPDX-License-Identifier: MIT\npragma solidity ^0.8.1;\nimport \"./ReefRoyalty.sol\";\nimport \"@openzeppelin/contracts/access/Ownable.sol\";\nimport \"@openzeppelin/contracts/utils/Counters.sol\";\ncontract CollectionFactory is Ownable {\n    using Counters for Counters.Counter;\n    Counters.Counter private collectionId_;\n    uint256 price;\n    struct collectionInfo{\n        address contractAddress;\n        string metaDataHash;\n        address creator;\n    }\n    mapping(address=>uint[]) userToContracts;\n    mapping(address=>uint) contractToIndex;\n    mapping(uint256=>collectionInfo) collectionByIndex;\n    event CollectionCreated(address indexed creator,address indexed contractAddress,string indexed metaData);\n    constructor(uint256 price_){\n        price = price_;\n    }\n    function setPrice(uint256 newPrice_) external onlyOwner{\n        price = newPrice_;\n    }\n    function getPrice() external view returns(uint256){\n        return price;\n    }\n    function retrieveBalance() external onlyOwner{\n        payable(owner()).transfer(address(this).balance);\n    }\n    function createCollection(string calldata name_,string calldata symbol_,string calldata metaData) external payable{\n        require(msg.value >= price,\"ReefRoyalty: Pay the required amount\");\n        \n        collectionId_.increment();\n        ReefRoyalty NFTContract = new ReefRoyalty(name_,symbol_,msg.sender);\n        collectionInfo memory Info = collectionInfo(\n                                                    address(NFTContract),\n                                                    metaData,\n                                                    msg.sender\n                                                    );\n        userToContracts[msg.sender].push(collectionId_.current());\n        collectionByIndex[collectionId_.current()] = Info;\n        contractToIndex[address(NFTContract)] = collectionId_.current();\n        emit CollectionCreated(msg.sender,address(NFTContract),metaData);\n    }\n    \n    function editMetaData(address contractAddress,string calldata newHash) external{\n        require(contractToIndex[contractAddress] != 0,\"Contract doesn't exist in scope of Factory\");\n        collectionInfo storage Info = collectionByIndex[contractToIndex[contractAddress]];\n        require(Info.creator == msg.sender,\"Only creator can edit metaData\");\n        Info.metaDataHash = newHash;\n    }\n    \n    function getUserCollections() external view returns(collectionInfo[] memory){\n        uint length = userToContracts[msg.sender].length;\n        collectionInfo[] memory Info = new collectionInfo[](length);\n        for (uint i=0;i<length;i++){\n            Info[i] = collectionByIndex[userToContracts[msg.sender][i]];\n        }\n        return Info;\n        \n    }\n    \n    function totalCollections() external view returns(uint){\n        return collectionId_.current();\n    }\n    \n    function getCollectionsPaginated(uint startIndex,uint endIndex) external view returns(collectionInfo[] memory,bool){\n        require(endIndex>=startIndex,\"End Index needs to be greater than or equal to start Index\");\n        uint length = endIndex-startIndex + 1;\n        collectionInfo[] memory Info = new collectionInfo[](length);\n        uint j = 0;\n        for(uint i=startIndex;i<=endIndex;i++){\n            Info[j] = collectionByIndex[i];\n            j++;\n        }\n        if(endIndex<collectionId_.current()){\n            return(Info,false);\n        }\n        else{\n            return(Info,true);\n        }\n        \n    }\n}",
  "sourcePath": "/home/nghiata/Workspace/Blockchain/near/picasarts--aurora/contracts/CollectionFactory.sol",
  "compiler": {
    "name": "solc",
    "version": "0.8.1+commit.df193b15.Linux.g++"
  },
  "schemaVersion": "3.4.4",
  "updatedAt": "2022-02-16T08:05:10.913Z",
  "networkType": "ethereum",
  "devdoc": {
    "kind": "dev",
    "methods": {
      "owner()": {
        "details": "Returns the address of the current owner."
      },
      "renounceOwnership()": {
        "details": "Leaves the contract without owner. It will not be possible to call `onlyOwner` functions anymore. Can only be called by the current owner. NOTE: Renouncing ownership will leave the contract without an owner, thereby removing any functionality that is only available to the owner."
      },
      "transferOwnership(address)": {
        "details": "Transfers ownership of the contract to a new account (`newOwner`). Can only be called by the current owner."
      }
    },
    "version": 1
  },
  "userdoc": {
    "kind": "user",
    "methods": {},
    "version": 1
  }
}