{
  "contractName": "MarketPlace",
  "abi": [
    {
      "anonymous": false,
      "inputs": [
        {
          "indexed": true,
          "internalType": "uint256",
          "name": "itemId",
          "type": "uint256"
        },
        {
          "indexed": true,
          "internalType": "address",
          "name": "bidder",
          "type": "address"
        },
        {
          "indexed": false,
          "internalType": "uint256",
          "name": "amount",
          "type": "uint256"
        }
      ],
      "name": "MarketItemBid",
      "type": "event"
    },
    {
      "anonymous": false,
      "inputs": [
        {
          "indexed": true,
          "internalType": "uint256",
          "name": "itemId",
          "type": "uint256"
        },
        {
          "indexed": true,
          "internalType": "address",
          "name": "nftContract",
          "type": "address"
        },
        {
          "indexed": true,
          "internalType": "uint256",
          "name": "tokenId",
          "type": "uint256"
        },
        {
          "indexed": false,
          "internalType": "address",
          "name": "seller",
          "type": "address"
        },
        {
          "indexed": false,
          "internalType": "address",
          "name": "owner",
          "type": "address"
        },
        {
          "indexed": false,
          "internalType": "uint256",
          "name": "price",
          "type": "uint256"
        }
      ],
      "name": "MarketItemCreated",
      "type": "event"
    },
    {
      "anonymous": false,
      "inputs": [
        {
          "indexed": false,
          "internalType": "uint256",
          "name": "itemId",
          "type": "uint256"
        },
        {
          "indexed": true,
          "internalType": "address",
          "name": "nftContract",
          "type": "address"
        },
        {
          "indexed": true,
          "internalType": "address",
          "name": "seller",
          "type": "address"
        },
        {
          "indexed": true,
          "internalType": "address",
          "name": "newOwner",
          "type": "address"
        }
      ],
      "name": "MarketItemSold",
      "type": "event"
    },
    {
      "anonymous": false,
      "inputs": [
        {
          "indexed": false,
          "internalType": "uint256",
          "name": "itemId",
          "type": "uint256"
        }
      ],
      "name": "MarketItemUnlisted",
      "type": "event"
    },
    {
      "inputs": [],
      "name": "ERC2981INTERFACE",
      "outputs": [
        {
          "internalType": "bytes4",
          "name": "",
          "type": "bytes4"
        }
      ],
      "stateMutability": "view",
      "type": "function",
      "constant": true
    },
    {
      "inputs": [],
      "name": "ERC721INTERFACE",
      "outputs": [
        {
          "internalType": "bytes4",
          "name": "",
          "type": "bytes4"
        }
      ],
      "stateMutability": "view",
      "type": "function",
      "constant": true
    },
    {
      "inputs": [
        {
          "internalType": "address",
          "name": "nftContract",
          "type": "address"
        },
        {
          "internalType": "uint256",
          "name": "tokenId",
          "type": "uint256"
        },
        {
          "internalType": "uint256",
          "name": "price",
          "type": "uint256"
        }
      ],
      "name": "createMarketItem",
      "outputs": [],
      "stateMutability": "payable",
      "type": "function",
      "payable": true
    },
    {
      "inputs": [
        {
          "internalType": "address",
          "name": "nftContract",
          "type": "address"
        },
        {
          "internalType": "uint256",
          "name": "tokenId",
          "type": "uint256"
        },
        {
          "internalType": "uint256",
          "name": "floorPrice",
          "type": "uint256"
        },
        {
          "internalType": "uint256",
          "name": "auctionDays",
          "type": "uint256"
        }
      ],
      "name": "createMarketAuction",
      "outputs": [],
      "stateMutability": "payable",
      "type": "function",
      "payable": true
    },
    {
      "inputs": [
        {
          "internalType": "uint256",
          "name": "itemId",
          "type": "uint256"
        }
      ],
      "name": "createAuctionBid",
      "outputs": [],
      "stateMutability": "payable",
      "type": "function",
      "payable": true
    },
    {
      "inputs": [
        {
          "internalType": "address",
          "name": "nftContract",
          "type": "address"
        },
        {
          "internalType": "uint256",
          "name": "itemId",
          "type": "uint256"
        }
      ],
      "name": "createAuctionSale",
      "outputs": [],
      "stateMutability": "payable",
      "type": "function",
      "payable": true
    },
    {
      "inputs": [
        {
          "internalType": "address",
          "name": "nftContract",
          "type": "address"
        },
        {
          "internalType": "uint256",
          "name": "itemId",
          "type": "uint256"
        }
      ],
      "name": "createMarketSale",
      "outputs": [],
      "stateMutability": "payable",
      "type": "function",
      "payable": true
    },
    {
      "inputs": [],
      "name": "fetchUserBids",
      "outputs": [
        {
          "components": [
            {
              "internalType": "uint256",
              "name": "itemId",
              "type": "uint256"
            },
            {
              "internalType": "address",
              "name": "nftContract",
              "type": "address"
            },
            {
              "internalType": "uint256",
              "name": "tokenId",
              "type": "uint256"
            },
            {
              "internalType": "address payable",
              "name": "creator",
              "type": "address"
            },
            {
              "internalType": "address payable",
              "name": "seller",
              "type": "address"
            },
            {
              "internalType": "address payable",
              "name": "owner",
              "type": "address"
            },
            {
              "internalType": "uint256",
              "name": "price",
              "type": "uint256"
            },
            {
              "internalType": "uint256",
              "name": "royalty",
              "type": "uint256"
            },
            {
              "internalType": "bool",
              "name": "isAuction",
              "type": "bool"
            },
            {
              "internalType": "bool",
              "name": "sold",
              "type": "bool"
            }
          ],
          "internalType": "struct MarketPlace.MarketItem[]",
          "name": "",
          "type": "tuple[]"
        },
        {
          "components": [
            {
              "internalType": "uint256",
              "name": "highestBid",
              "type": "uint256"
            },
            {
              "internalType": "address",
              "name": "highestBidder",
              "type": "address"
            },
            {
              "internalType": "uint256",
              "name": "timeEnding",
              "type": "uint256"
            }
          ],
          "internalType": "struct MarketPlace.AuctionInfo[]",
          "name": "",
          "type": "tuple[]"
        }
      ],
      "stateMutability": "view",
      "type": "function",
      "constant": true
    },
    {
      "inputs": [],
      "name": "fetchMarketItems",
      "outputs": [
        {
          "components": [
            {
              "internalType": "uint256",
              "name": "itemId",
              "type": "uint256"
            },
            {
              "internalType": "address",
              "name": "nftContract",
              "type": "address"
            },
            {
              "internalType": "uint256",
              "name": "tokenId",
              "type": "uint256"
            },
            {
              "internalType": "address payable",
              "name": "creator",
              "type": "address"
            },
            {
              "internalType": "address payable",
              "name": "seller",
              "type": "address"
            },
            {
              "internalType": "address payable",
              "name": "owner",
              "type": "address"
            },
            {
              "internalType": "uint256",
              "name": "price",
              "type": "uint256"
            },
            {
              "internalType": "uint256",
              "name": "royalty",
              "type": "uint256"
            },
            {
              "internalType": "bool",
              "name": "isAuction",
              "type": "bool"
            },
            {
              "internalType": "bool",
              "name": "sold",
              "type": "bool"
            }
          ],
          "internalType": "struct MarketPlace.MarketItem[]",
          "name": "",
          "type": "tuple[]"
        },
        {
          "components": [
            {
              "internalType": "uint256",
              "name": "highestBid",
              "type": "uint256"
            },
            {
              "internalType": "address",
              "name": "highestBidder",
              "type": "address"
            },
            {
              "internalType": "uint256",
              "name": "timeEnding",
              "type": "uint256"
            }
          ],
          "internalType": "struct MarketPlace.AuctionInfo[]",
          "name": "",
          "type": "tuple[]"
        }
      ],
      "stateMutability": "view",
      "type": "function",
      "constant": true
    },
    {
      "inputs": [],
      "name": "fetchMyNFTs",
      "outputs": [
        {
          "components": [
            {
              "internalType": "uint256",
              "name": "itemId",
              "type": "uint256"
            },
            {
              "internalType": "address",
              "name": "nftContract",
              "type": "address"
            },
            {
              "internalType": "uint256",
              "name": "tokenId",
              "type": "uint256"
            },
            {
              "internalType": "address payable",
              "name": "creator",
              "type": "address"
            },
            {
              "internalType": "address payable",
              "name": "seller",
              "type": "address"
            },
            {
              "internalType": "address payable",
              "name": "owner",
              "type": "address"
            },
            {
              "internalType": "uint256",
              "name": "price",
              "type": "uint256"
            },
            {
              "internalType": "uint256",
              "name": "royalty",
              "type": "uint256"
            },
            {
              "internalType": "bool",
              "name": "isAuction",
              "type": "bool"
            },
            {
              "internalType": "bool",
              "name": "sold",
              "type": "bool"
            }
          ],
          "internalType": "struct MarketPlace.MarketItem[]",
          "name": "",
          "type": "tuple[]"
        }
      ],
      "stateMutability": "view",
      "type": "function",
      "constant": true
    },
    {
      "inputs": [],
      "name": "fetchItemsCreated",
      "outputs": [
        {
          "components": [
            {
              "internalType": "uint256",
              "name": "itemId",
              "type": "uint256"
            },
            {
              "internalType": "address",
              "name": "nftContract",
              "type": "address"
            },
            {
              "internalType": "uint256",
              "name": "tokenId",
              "type": "uint256"
            },
            {
              "internalType": "address payable",
              "name": "creator",
              "type": "address"
            },
            {
              "internalType": "address payable",
              "name": "seller",
              "type": "address"
            },
            {
              "internalType": "address payable",
              "name": "owner",
              "type": "address"
            },
            {
              "internalType": "uint256",
              "name": "price",
              "type": "uint256"
            },
            {
              "internalType": "uint256",
              "name": "royalty",
              "type": "uint256"
            },
            {
              "internalType": "bool",
              "name": "isAuction",
              "type": "bool"
            },
            {
              "internalType": "bool",
              "name": "sold",
              "type": "bool"
            }
          ],
          "internalType": "struct MarketPlace.MarketItem[]",
          "name": "",
          "type": "tuple[]"
        }
      ],
      "stateMutability": "view",
      "type": "function",
      "constant": true
    },
    {
      "inputs": [
        {
          "internalType": "uint256",
          "name": "itemId",
          "type": "uint256"
        }
      ],
      "name": "unlistItem",
      "outputs": [],
      "stateMutability": "nonpayable",
      "type": "function"
    }
  ],
  "bytecode": "0x608060405234801561001057600080fd5b506001600055612c03806100256000396000f3fe6080604052600436106100ab5760003560e060020a900480635a599da8116100685780635a599da81461015d5780635f3d48061461017d57806362822f8014610192578063be87e081146101a5578063c23b139e146101b8578063f064c32e146101cb576100ab565b806307cb1a6e146100b05780630f08efe0146100db5780631879c750146100fe578063202e37401461011357806348b7e2b71461013557806358eb2df51461014a575b600080fd5b3480156100bc57600080fd5b506100c56101e0565b6040516100d291906126da565b60405180910390f35b3480156100e757600080fd5b506100f0610204565b6040516100d2929190612667565b34801561010a57600080fd5b506100c56104ba565b34801561011f57600080fd5b506101286104de565b6040516100d29190612654565b610148610143366004612410565b6106fc565b005b610148610158366004612468565b6109d7565b34801561016957600080fd5b506101486101783660046124f6565b610f4e565b34801561018957600080fd5b506100f06111bc565b6101486101a03660046124f6565b6114a8565b6101486101b336600461249c565b61164b565b6101486101c6366004612410565b611d11565b3480156101d757600080fd5b50610128611fa9565b7f80ac58cd0000000000000000000000000000000000000000000000000000000081565b606080600061021360016121be565b9050600061022160026121be565b61022b60016121be565b6102359190612b6a565b90506000808267ffffffffffffffff8111156102645760e060020a634e487b7102600052604160045260246000fd5b60405190808252806020026020018201604052801561029d57816020015b61028a61236f565b8152602001906001900390816102825790505b50905060008367ffffffffffffffff8111156102cc5760e060020a634e487b7102600052604160045260246000fd5b60405190808252806020026020018201604052801561030557816020015b6102f26123c3565b8152602001906001900390816102ea5790505b50905060005b858110156104ad5760036000610322836001612b33565b8152602081019190915260400160002060080154610100900460ff1661049b57600061034f826001612b33565b6000818152600360208181526040808420600480845294829020825161014081018452825481526001830154600160a060020a039081169582019590955260028301549381019390935293810154831660608301529384015482166080820152600584015490911660a0820152600683015460c0820152600783015460e0820152600883015460ff8082161515610100808501919091529091041615156101208201528751939450919290919087908990811061041f5760e060020a634e487b7102600052603260045260246000fd5b60209081029190910181019190915260408051606081018252835481526001840154600160a060020a031692810192909252600283015490820152855186908990811061047f5760e060020a634e487b7102600052603260045260246000fd5b6020908102919091010152610495600188612b33565b96505050505b806104a581612b81565b91505061030b565b5090955093505050509091565b7f2a55205a0000000000000000000000000000000000000000000000000000000081565b606060006104ec60016121be565b905060008060005b8381101561054f57336003600061050c846001612b33565b8152602081019190915260400160002060050154600160a060020a0316141561053d5761053a600184612b33565b92505b8061054781612b81565b9150506104f4565b5060008267ffffffffffffffff81111561057c5760e060020a634e487b7102600052604160045260246000fd5b6040519080825280602002602001820160405280156105b557816020015b6105a261236f565b81526020019060019003908161059a5790505b50905060005b848110156106f35733600360006105d3846001612b33565b8152602081019190915260400160002060050154600160a060020a031614156106e1576000610603826001612b33565b600081815260036020818152604092839020835161014081018552815481526001820154600160a060020a0390811693820193909352600282015494810194909452918201548116606084015260048201548116608084015260058201541660a0830152600681015460c0830152600781015460e0830152600881015460ff8082161515610100808601919091529091041615156101208301528551929350918590879081106106c65760e060020a634e487b7102600052603260045260246000fd5b60209081029190910101526106dc600186612b33565b945050505b806106eb81612b81565b9150506105bb565b50935050505090565b6002600054141561072b5760405160e560020a62461bcd02815260040161072290612a1a565b60405180910390fd5b6002600090815581815260036020908152604080832060049092529091206008820154610100900460ff16156107765760405160e560020a62461bcd02815260040161072290612975565b600882015460ff1661079d5760405160e560020a62461bcd0281526004016107229061273b565b428160020154106107c35760405160e560020a62461bcd028152600401610722906129ac565b6001810154600160a060020a031633146107f25760405160e560020a62461bcd02815260040161072290612817565b60048201546003830154600160a060020a0390811691161415610850576001820154604051600160a060020a03909116903480156108fc02916000818181858888f1935050505015801561084a573d6000803e3d6000fd5b506108df565b60048201546007830154604051600160a060020a039092169181156108fc0291906000818181858888f19350505050158015610890573d6000803e3d6000fd5b5060048201546007830154600160a060020a03909116906108fc906108b59034612b6a565b6040518115909202916000818181858888f193505050501580156108dd573d6000803e3d6000fd5b505b600282015460405160e060020a6323b872dd028152600160a060020a038616916323b872dd91610916913091339190600401612630565b600060405180830381600087803b15801561093057600080fd5b505af1158015610944573d6000803e3d6000fd5b505050600583018054600160a060020a031916331790555060088201805461ff00191661010017905561097760026121c2565b60058201546004830154604051600160a060020a0392831692918216918716907f947311168d2a40fc244919c4730e9cdd04e55a2c2db85589585acb09f89efe1e906109c4908890612b1c565b60405180910390a4505060016000555050565b600260005414156109fd5760405160e560020a62461bcd02815260040161072290612a1a565b600260005580610a225760405160e560020a62461bcd02815260040161072290612aae565b610a4c837f80ac58cd000000000000000000000000000000000000000000000000000000006121cb565b610a6b5760405160e560020a62461bcd02815260040161072290612772565b6040517f6352211e0000000000000000000000000000000000000000000000000000000081523390600160a060020a03851690636352211e90610ab2908690600401612b1c565b60206040518083038186803b158015610aca57600080fd5b505afa158015610ade573d6000803e3d6000fd5b505050506040513d601f19601f82011682018060405250810190610b0291906123ed565b600160a060020a031614610b2b5760405160e560020a62461bcd028152600401610722906127e0565b610b3560016121c2565b6000610b4160016121be565b9050610b6d847f2a55205a000000000000000000000000000000000000000000000000000000006121cb565b15610da55760008085600160a060020a0316632a55205a86866040518363ffffffff1660e060020a028152600401610ba6929190612b25565b604080518083038186803b158015610bbd57600080fd5b505afa158015610bd1573d6000803e3d6000fd5b505050506040513d601f19601f82011682018060405250810190610bf5919061243b565b9150915060405180610140016040528084815260200187600160a060020a0316815260200186815260200183600160a060020a0316815260200133600160a060020a031681526020016000600160a060020a0316815260200185815260200182815260200160001515815260200160001515815250600360008581526020019081526020016000206000820151816000015560208201518160010160006101000a815481600160a060020a030219169083600160a060020a031602179055506040820151816002015560608201518160030160006101000a815481600160a060020a030219169083600160a060020a0316021790555060808201518160040160006101000a815481600160a060020a030219169083600160a060020a0316021790555060a08201518160050160006101000a815481600160a060020a030219169083600160a060020a0316021790555060c0820151816006015560e082015181600701556101008201518160080160006101000a81548160ff0219169083151502179055506101208201518160080160016101000a81548160ff0219169083151502179055509050505050610ea9565b6040805161014081018252828152600160a060020a038681166020808401918252838501888152336060860181815260808701918252600060a0880181815260c089018c815260e08a01838152610100808c018581526101208d018681528f875260039a8b90529d9095209b518c55985160018c018054600160a060020a0319908116928d16929092179055965160028c01559351968a0180548716978a16979097179096559251600489018054861691891691909117905591516005880180549094169616959095179091559051600685015591516007840155905160089092018054935160ff19949094169215159290921761ff001916921515029190911790555b60405160e060020a6323b872dd028152600160a060020a038516906323b872dd90610edc90339030908890600401612630565b600060405180830381600087803b158015610ef657600080fd5b505af1158015610f0a573d6000803e3d6000fd5b505050508284600160a060020a0316827f2ad024d53a0dc50c130967f8d4941927ee087ea31394cebb2b9599d3706c9c00336000876040516109c493929190612630565b60026000541415610f745760405160e560020a62461bcd02815260040161072290612a1a565b6002600090815581815260036020526040902060080154610100900460ff1615610fb35760405160e560020a62461bcd02815260040161072290612704565b600081815260036020526040902060040154600160a060020a03163314610fef5760405160e560020a62461bcd0281526004016107229061284c565b60008181526003602052604090206008015460ff161561108657600081815260046020526040902080541561105d5760018101548154604051600160a060020a039092169181156108fc0291906000818181858888f1935050505015801561105b573d6000803e3d6000fd5b505b506000818152600460205260408120818155600181018054600160a060020a0319169055600201555b600081815260036020526040908190206001810154600290910154915160e060020a6323b872dd028152600160a060020a03909116916323b872dd916110d3913091339190600401612630565b600060405180830381600087803b1580156110ed57600080fd5b505af1158015611101573d6000803e3d6000fd5b50505060008281526003602081905260408220828155600181018054600160a060020a031990811690915560028083018590559282018054821690556004820180548216905560058201805490911690556006810183905560078101929092556008909101805461ffff191661010017905561117d91506121c2565b7f1cda23a20f33fe41e032453215b343b1a71ca2d5d923673971254f6c73389480816040516111ac9190612b1c565b60405180910390a1506001600055565b60608060006111cb60016121be565b905060008060005b8381101561122e5733600460006111eb846001612b33565b8152602081019190915260400160002060010154600160a060020a0316141561121c57611219600184612b33565b92505b8061122681612b81565b9150506111d3565b5060008267ffffffffffffffff81111561125b5760e060020a634e487b7102600052604160045260246000fd5b60405190808252806020026020018201604052801561129457816020015b61128161236f565b8152602001906001900390816112795790505b50905060008367ffffffffffffffff8111156112c35760e060020a634e487b7102600052604160045260246000fd5b6040519080825280602002602001820160405280156112fc57816020015b6112e96123c3565b8152602001906001900390816112e15790505b50905060005b858110156104ad57336003600061131a846001612b33565b8152602081019190915260400160002060050154600160a060020a0316141561149657600061134a826001612b33565b6000818152600360208181526040808420600480845294829020825161014081018452825481526001830154600160a060020a039081169582019590955260028301549381019390935293810154831660608301529384015482166080820152600584015490911660a0820152600683015460c0820152600783015460e0820152600883015460ff8082161515610100808501919091529091041615156101208201528751939450919290919087908990811061141a5760e060020a634e487b7102600052603260045260246000fd5b60209081029190910181019190915260408051606081018252835481526001840154600160a060020a031692810192909252600283015490820152855186908990811061147a5760e060020a634e487b7102600052603260045260246000fd5b6020908102919091010152611490600188612b33565b96505050505b806114a081612b81565b915050611302565b600260005414156114ce5760405160e560020a62461bcd02815260040161072290612a1a565b6002600090815581815260036020908152604080832060049092529091206008820154610100900460ff16156115195760405160e560020a62461bcd02815260040161072290612975565b600882015460ff166115405760405160e560020a62461bcd0281526004016107229061273b565b428160020154116115665760405160e560020a62461bcd028152600401610722906127a9565b8160060154341161158c5760405160e560020a62461bcd02815260040161072290612a51565b805434116115af5760405160e560020a62461bcd02815260040161072290612918565b60018101548154604051600160a060020a039092169181156108fc0291906000818181858888f193505050501580156115ec573d6000803e3d6000fd5b50600181018054600160a060020a031916339081179091553480835560405185917f15b8c46b3adaaaed6a15b987e48c55b5004e791f99bd3864378d38d4f355008f916116399190612b1c565b60405180910390a35050600160005550565b600260005414156116715760405160e560020a62461bcd02815260040161072290612a1a565b6002600055816116965760405160e560020a62461bcd02815260040161072290612aae565b600081116116b95760405160e560020a62461bcd028152600401610722906128e1565b6116e3847f80ac58cd000000000000000000000000000000000000000000000000000000006121cb565b6117025760405160e560020a62461bcd02815260040161072290612772565b6040517f6352211e0000000000000000000000000000000000000000000000000000000081523390600160a060020a03861690636352211e90611749908790600401612b1c565b60206040518083038186803b15801561176157600080fd5b505afa158015611775573d6000803e3d6000fd5b505050506040513d601f19601f8201168201806040525081019061179991906123ed565b600160a060020a0316146117c25760405160e560020a62461bcd028152600401610722906127e0565b6117cc60016121c2565b60006117d860016121be565b9050611804857f2a55205a000000000000000000000000000000000000000000000000000000006121cb565b15611a3c5760008086600160a060020a0316632a55205a87876040518363ffffffff1660e060020a02815260040161183d929190612b25565b604080518083038186803b15801561185457600080fd5b505afa158015611868573d6000803e3d6000fd5b505050506040513d601f19601f8201168201806040525081019061188c919061243b565b9150915060405180610140016040528084815260200188600160a060020a0316815260200187815260200183600160a060020a0316815260200133600160a060020a031681526020016000600160a060020a0316815260200186815260200182815260200160011515815260200160001515815250600360008581526020019081526020016000206000820151816000015560208201518160010160006101000a815481600160a060020a030219169083600160a060020a031602179055506040820151816002015560608201518160030160006101000a815481600160a060020a030219169083600160a060020a0316021790555060808201518160040160006101000a815481600160a060020a030219169083600160a060020a0316021790555060a08201518160050160006101000a815481600160a060020a030219169083600160a060020a0316021790555060c0820151816006015560e082015181600701556101008201518160080160006101000a81548160ff0219169083151502179055506101208201518160080160016101000a81548160ff0219169083151502179055509050505050611beb565b6000339050600060405180610140016040528084815260200188600160a060020a0316815260200187815260200183600160a060020a0316815260200133600160a060020a031681526020016000600160a060020a0316815260200186815260200182815260200160011515815260200160001515815250600360008581526020019081526020016000206000820151816000015560208201518160010160006101000a815481600160a060020a030219169083600160a060020a031602179055506040820151816002015560608201518160030160006101000a815481600160a060020a030219169083600160a060020a0316021790555060808201518160040160006101000a815481600160a060020a030219169083600160a060020a0316021790555060a08201518160050160006101000a815481600160a060020a030219169083600160a060020a0316021790555060c0820151816006015560e082015181600701556101008201518160080160006101000a81548160ff0219169083151502179055506101208201518160080160016101000a81548160ff02191690831515021790555090505050505b60405160e060020a6323b872dd028152600160a060020a038616906323b872dd90611c1e90339030908990600401612630565b600060405180830381600087803b158015611c3857600080fd5b505af1158015611c4c573d6000803e3d6000fd5b50506040805160608101825260008082526020820152925082019050611c758462015180612b4b565b611c7f9042612b33565b905260008281526004602090815260408083208451815591840151600183018054600160a060020a031916600160a060020a039283161790559381015160029092019190915551869288169184917f2ad024d53a0dc50c130967f8d4941927ee087ea31394cebb2b9599d3706c9c0091611cfd913391908a90612630565b60405180910390a450506001600055505050565b60026000541415611d375760405160e560020a62461bcd02815260040161072290612a1a565b60026000908155818152600360205260409020600881015460ff1615611d725760405160e560020a62461bcd028152600401610722906129e3565b80600601543414611d985760405160e560020a62461bcd02815260040161072290612883565b6008810154610100900460ff1615611dc55760405160e560020a62461bcd02815260040161072290612ae5565b60048101546003820154600160a060020a0390811691161415611e23576001810154604051600160a060020a03909116903480156108fc02916000818181858888f19350505050158015611e1d573d6000803e3d6000fd5b50611eb2565b60048101546007820154604051600160a060020a039092169181156108fc0291906000818181858888f19350505050158015611e63573d6000803e3d6000fd5b5060048101546007820154600160a060020a03909116906108fc90611e889034612b6a565b6040518115909202916000818181858888f19350505050158015611eb0573d6000803e3d6000fd5b505b600281015460405160e060020a6323b872dd028152600160a060020a038516916323b872dd91611ee9913091339190600401612630565b600060405180830381600087803b158015611f0357600080fd5b505af1158015611f17573d6000803e3d6000fd5b505050600582018054600160a060020a031916331790555060088101805461ff001916610100179055611f4a60026121c2565b60058101546004820154604051600160a060020a0392831692918216918616907f947311168d2a40fc244919c4730e9cdd04e55a2c2db85589585acb09f89efe1e90611f97908790612b1c565b60405180910390a45050600160005550565b60606000611fb760016121be565b905060008060005b8381101561201a573360036000611fd7846001612b33565b8152602081019190915260400160002060040154600160a060020a0316141561200857612005600184612b33565b92505b8061201281612b81565b915050611fbf565b5060008267ffffffffffffffff8111156120475760e060020a634e487b7102600052604160045260246000fd5b60405190808252806020026020018201604052801561208057816020015b61206d61236f565b8152602001906001900390816120655790505b50905060005b848110156106f357336003600061209e846001612b33565b8152602081019190915260400160002060040154600160a060020a031614156121ac5760006120ce826001612b33565b600081815260036020818152604092839020835161014081018552815481526001820154600160a060020a0390811693820193909352600282015494810194909452918201548116606084015260048201548116608084015260058201541660a0830152600681015460c0830152600781015460e0830152600881015460ff8082161515610100808601919091529091041615156101208301528551929350918590879081106121915760e060020a634e487b7102600052603260045260246000fd5b60209081029190910101526121a7600186612b33565b945050505b806121b681612b81565b915050612086565b5490565b80546001019055565b60006121d6836121f0565b80156121e757506121e78383612251565b90505b92915050565b600061221c827f01ffc9a700000000000000000000000000000000000000000000000000000000612251565b80156121ea575061224a827bffffffffffffffffffffffffffffffffffffffffffffffffffffffff19612251565b1592915050565b6000806301ffc9a760e060020a028360405160240161227091906126da565b604051602081830303815290604052907bffffffffffffffffffffffffffffffffffffffffffffffffffffffff19166020820180517bffffffffffffffffffffffffffffffffffffffffffffffffffffffff8381831617835250505050905060008085600160a060020a0316617530846040516122ed91906125f7565b6000604051808303818686fa925050503d8060008114612329576040519150601f19603f3d011682016040523d82523d6000602084013e61232e565b606091505b509150915060208151101561234957600093505050506121ea565b81801561236557508080602001905181019061236591906124d6565b9695505050505050565b6040805161014081018252600080825260208201819052918101829052606081018290526080810182905260a0810182905260c0810182905260e08101829052610100810182905261012081019190915290565b6040518060600160405280600081526020016000600160a060020a03168152602001600081525090565b6000602082840312156123fe578081fd5b815161240981612bb5565b9392505050565b60008060408385031215612422578081fd5b823561242d81612bb5565b946020939093013593505050565b6000806040838503121561244d578182fd5b825161245881612bb5565b6020939093015192949293505050565b60008060006060848603121561247c578081fd5b833561248781612bb5565b95602085013595506040909401359392505050565b600080600080608085870312156124b1578081fd5b84356124bc81612bb5565b966020860135965060408601359560600135945092505050565b6000602082840312156124e7578081fd5b81518015158114612409578182fd5b600060208284031215612507578081fd5b5035919050565b600160a060020a03169052565b6000815180845260208085019450808401835b838110156125e6578151805188528381015161254c858a018261250e565b5060408181015190890152606080820151612569828b018261250e565b505060808082015161257d828b018261250e565b505060a080820151612591828b018261250e565b505060c0818101519089015260e08082015190890152610100808201516125ba828b01826125f1565b505061012090810151906125d0898201836125f1565b505061014096909601959082019060010161252e565b509495945050505050565b15159052565b60008251815b8181101561261757602081860181015185830152016125fd565b818111156126255782828501525b509190910192915050565b600160a060020a039384168152919092166020820152604081019190915260600190565b6000602082526121e7602083018461251b565b6000604080835261267a8184018661251b565b838103602085810191909152855180835286820192820190855b818110156126cc5784518051845284810151600160a060020a0316858501528601518684015293830193606090920191600101612694565b509098975050505050505050565b7bffffffffffffffffffffffffffffffffffffffffffffffffffffffff1991909116815260200190565b6020808252601c908201527f536f6c64206974656d732063616e277420626520756e6c697374656400000000604082015260600190565b60208082526017908201527f4974656d206973206e6f7420666f722061756374696f6e000000000000000000604082015260600190565b6020808252601b908201527f436f6e7472616374206e6565647320746f206265204552433732310000000000604082015260600190565b60208082526019908201527f41756374696f6e2068617320616c726561647920656e64656400000000000000604082015260600190565b6020808252601d908201527f4f6e6c79206f776e65722063616e20637265617465206c697374696e67000000604082015260600190565b6020808252818101527f53656e646572206973206e6f7420746865206869676865737420626964646572604082015260600190565b60208082526014908201527f53656e646572206973206e6f74206c6973746572000000000000000000000000604082015260600190565b602080825260409082018190527f506c65617365207375626d6974207468652061736b696e672070726963652069908201527f6e206f7264657220746f20636f6d706c65746520746865207075726368617365606082015260800190565b6020808252601c908201527f41756374696f6e2074696d652063616e27742062652030206461797300000000604082015260600190565b6020808252602d908201527f596f75206e65656420746f20706179206d6f7265207468616e2063757272656e60408201527f7420686967686573742062696400000000000000000000000000000000000000606082015260800190565b6020808252601a908201527f4974656d2068617320616c7265616479206265656e20736f6c64000000000000604082015260600190565b60208082526019908201527f41756374696f6e20686173206e6f742079657420656e64656400000000000000604082015260600190565b60208082526017908201527f54686973206974656d206973206f6e2061756374696f6e000000000000000000604082015260600190565b6020808252601f908201527f5265656e7472616e637947756172643a207265656e7472616e742063616c6c00604082015260600190565b60208082526025908201527f596f75206e65656420746f20706179206d6f7265207468616e20666c6f6f722060408201527f7072696365000000000000000000000000000000000000000000000000000000606082015260800190565b6020808252601c908201527f5072696365206d757374206265206174206c6561737420312077656900000000604082015260600190565b60208082526011908201527f4974656d20616c726561647920736f6c64000000000000000000000000000000604082015260600190565b90815260200190565b918252602082015260400190565b60008219821115612b4657612b46612b9c565b500190565b6000816000190483118215151615612b6557612b65612b9c565b500290565b600082821015612b7c57612b7c612b9c565b500390565b6000600019821415612b9557612b95612b9c565b5060010190565b60e060020a634e487b7102600052601160045260246000fd5b600160a060020a0381168114612bca57600080fd5b5056fea2646970667358221220c84dcebe925a57c759159e35701d8d2cc3b6af7048ee565590a79aa8a840cf7c64736f6c63430008000033",
  "immutableReferences": {},
  "source": "// SPDX-License-Identifier: MIT\n\npragma solidity ^0.8.0;\n\nimport \"@openzeppelin/contracts/token/ERC721/IERC721.sol\";\nimport \"@openzeppelin/contracts/utils/introspection/ERC165Checker.sol\";\nimport \"@openzeppelin/contracts/security/ReentrancyGuard.sol\";\nimport \"@openzeppelin/contracts/utils/Counters.sol\";\nimport \"./IRRoyalty.sol\";\n\ncontract MarketPlace is ReentrancyGuard {\n    \n    \n    bytes4 public constant ERC721INTERFACE = type(IERC721).interfaceId;\n    bytes4 public constant ERC2981INTERFACE = type(IERC2981).interfaceId;\n\n    using Counters for Counters.Counter;\n    Counters.Counter private _itemIds;\n    Counters.Counter private _itemsSold;\n\n\n    struct MarketItem {\n    uint itemId;\n    address nftContract;\n    uint256 tokenId;\n    address payable creator;\n    address payable seller;\n    address payable owner;\n    uint256 price;\n    uint256 royalty;\n    bool isAuction;\n    bool sold;\n  }\n\n    struct AuctionInfo {\n        uint256 highestBid;\n        address highestBidder;\n        uint256 timeEnding;\n    }\n    \n    mapping(uint256 => MarketItem) private idToMarketItem;\n    mapping(uint256 => AuctionInfo) private auctionData;\n\n    event MarketItemCreated (\n        uint indexed itemId,\n        address indexed nftContract,\n        uint256 indexed tokenId,\n        address seller,\n        address owner,\n        uint256 price\n    );\n\n    event MarketItemSold(\n        uint256 itemId,\n        address indexed nftContract,\n        address indexed seller,\n        address indexed newOwner\n        );\n    \n    event MarketItemUnlisted(\n        uint256 itemId\n        );\n        \n    event MarketItemBid(\n        uint256 indexed itemId,\n        address indexed bidder,\n        uint256 amount\n        );\n\n    /* Places an item for sale on the marketplace */\n    function createMarketItem(\n    address nftContract,\n    uint256 tokenId,\n    uint256 price\n    ) public payable nonReentrant {\n    require(price > 0, \"Price must be at least 1 wei\");\n    require(ERC165Checker.supportsInterface(nftContract,ERC721INTERFACE),\"Contract needs to be ERC721\");\n    require(IERC721(nftContract).ownerOf(tokenId) == msg.sender,\"Only owner can create listing\");\n    _itemIds.increment();\n    uint256 itemId = _itemIds.current();\n    \n    if (ERC165Checker.supportsInterface(nftContract,ERC2981INTERFACE)){\n        (address creator,uint256 royaltyAmount) = IERC2981(nftContract).royaltyInfo(tokenId,price);\n        idToMarketItem[itemId] =  MarketItem(\n                                      itemId,\n                                      nftContract,\n                                      tokenId,\n                                      payable(creator),\n                                      payable(msg.sender),\n                                      payable(address(0)),\n                                      price,\n                                      royaltyAmount,\n                                      false,\n                                      false\n                                    );\n    }\n    else{\n        address creator = msg.sender;\n        uint royaltyAmount = 0;\n        idToMarketItem[itemId] =  MarketItem(\n                                      itemId,\n                                      nftContract,\n                                      tokenId,\n                                      payable(creator),\n                                      payable(msg.sender),\n                                      payable(address(0)),\n                                      price,\n                                      royaltyAmount,\n                                      false,\n                                      false\n                                    );\n    }\n    \n    IERC721(nftContract).transferFrom(msg.sender, address(this), tokenId);\n    \n    emit MarketItemCreated(\n      itemId,\n      nftContract,\n      tokenId,\n      msg.sender,\n      address(0),\n      price\n    );\n    }\n\n\n    function createMarketAuction(\n    address nftContract,\n    uint256 tokenId,\n    uint256 floorPrice,\n    uint auctionDays\n    ) external payable nonReentrant{\n    require(floorPrice > 0, \"Price must be at least 1 wei\");\n    require(auctionDays > 0, \"Auction time can't be 0 days\");\n    require(ERC165Checker.supportsInterface(nftContract,ERC721INTERFACE),\"Contract needs to be ERC721\");\n    require(IERC721(nftContract).ownerOf(tokenId) == msg.sender,\"Only owner can create listing\");\n    _itemIds.increment();\n    uint256 itemId = _itemIds.current();\n    \n    if (ERC165Checker.supportsInterface(nftContract,ERC2981INTERFACE)){\n        (address creator,uint256 royaltyAmount) = IERC2981(nftContract).royaltyInfo(tokenId,floorPrice);\n        idToMarketItem[itemId] =  MarketItem(\n                                      itemId,\n                                      nftContract,\n                                      tokenId,\n                                      payable(creator),\n                                      payable(msg.sender),\n                                      payable(address(0)),\n                                      floorPrice,\n                                      royaltyAmount,\n                                      true,\n                                      false\n                                    );\n    }\n    else{\n        address creator = msg.sender;\n        uint royaltyAmount = 0;\n        idToMarketItem[itemId] =  MarketItem(\n                                      itemId,\n                                      nftContract,\n                                      tokenId,\n                                      payable(creator),\n                                      payable(msg.sender),\n                                      payable(address(0)),\n                                      floorPrice,\n                                      royaltyAmount,\n                                      true,\n                                      false\n                                    );\n    }\n    \n    IERC721(nftContract).transferFrom(msg.sender, address(this), tokenId);\n    \n    auctionData[itemId] = AuctionInfo(0,\n                                      address(0),\n                                      (block.timestamp + auctionDays*1 days)\n                                     );\n    \n    emit MarketItemCreated(\n      itemId,\n      nftContract,\n      tokenId,\n      msg.sender,\n      address(0),\n      floorPrice\n    );\n    }\n    \n  function createAuctionBid(\n      uint256 itemId\n    ) external payable nonReentrant{\n        MarketItem storage currentItem = idToMarketItem[itemId];\n        AuctionInfo storage currentInfo = auctionData[itemId];\n        require(!currentItem.sold,\"Item has already been sold\");\n        require(currentItem.isAuction,\"Item is not for auction\");\n        require(currentInfo.timeEnding > block.timestamp,\"Auction has already ended\");\n        require(msg.value > currentItem.price,\"You need to pay more than floor price\");\n        require(msg.value > currentInfo.highestBid,\"You need to pay more than current highest bid\");\n        payable(currentInfo.highestBidder).transfer(currentInfo.highestBid);\n        currentInfo.highestBidder = msg.sender;\n        currentInfo.highestBid = msg.value;\n        emit MarketItemBid(itemId,msg.sender,msg.value);\n    }\n    \n  function createAuctionSale(\n        address nftContract,\n        uint itemId\n      ) external payable nonReentrant{\n        MarketItem storage currentItem = idToMarketItem[itemId];\n        AuctionInfo storage currentInfo = auctionData[itemId];\n        require(!currentItem.sold,\"Item has already been sold\");\n        require(currentItem.isAuction,\"Item is not for auction\");\n        require(currentInfo.timeEnding < block.timestamp,\"Auction has not yet ended\");\n        require(msg.sender == currentInfo.highestBidder,\"Sender is not the highest bidder\");\n        if(currentItem.creator == currentItem.seller ){\n        payable(currentItem.nftContract).transfer(msg.value);\n        }\n        else{\n        payable(currentItem.seller).transfer(currentItem.royalty);\n        currentItem.seller.transfer(msg.value-currentItem.royalty);\n        }\n        IERC721(nftContract).transferFrom(address(this), msg.sender, currentItem.tokenId);\n        currentItem.owner = payable(msg.sender);\n        currentItem.sold = true;\n        _itemsSold.increment();\n        emit MarketItemSold(itemId,nftContract,currentItem.seller,currentItem.owner);\n        }\n\n      \n  /* Creates the sale of a marketplace item */\n  /* Transfers ownership of the item, as well as funds between parties */\n  function createMarketSale(\n    address nftContract,\n    uint256 itemId\n    ) public payable nonReentrant {\n    MarketItem storage currentItem = idToMarketItem[itemId];\n    require(!currentItem.isAuction,\"This item is on auction\");\n    require(msg.value == currentItem.price, \"Please submit the asking price in order to complete the purchase\");\n    require(!currentItem.sold,\"Item already sold\");\n    if(currentItem.creator == currentItem.seller ){\n        payable(currentItem.nftContract).transfer(msg.value);\n    }\n    else{\n        payable(currentItem.seller).transfer(currentItem.royalty);\n        currentItem.seller.transfer(msg.value-currentItem.royalty);\n    }\n    IERC721(nftContract).transferFrom(address(this), msg.sender, currentItem.tokenId);\n    currentItem.owner = payable(msg.sender);\n    currentItem.sold = true;\n    _itemsSold.increment();\n    emit MarketItemSold(itemId,nftContract,currentItem.seller,currentItem.owner);\n  }\n  \n  /* Returns all of user bids */\n  function fetchUserBids() external view returns (MarketItem[] memory,AuctionInfo[] memory){\n      uint totalItemCount = _itemIds.current();\n      uint itemCount = 0;\n      uint currentIndex = 0;\n\n    for (uint i = 0; i < totalItemCount; i++) {\n      if (auctionData[i + 1].highestBidder == msg.sender) {\n        itemCount += 1;\n      }\n    }\n    \n    MarketItem[] memory items = new MarketItem[](itemCount);\n    AuctionInfo[] memory info = new AuctionInfo[](itemCount);\n    \n    for (uint i = 0; i < totalItemCount; i++) {\n      if (idToMarketItem[i + 1].owner == msg.sender) {\n        uint currentId = i + 1;\n        MarketItem storage currentItem = idToMarketItem[currentId];\n        AuctionInfo storage currentInfo = auctionData[currentId];\n        items[currentIndex] = currentItem;\n        info[currentIndex] = currentInfo;\n        currentIndex += 1;\n      }\n    }\n    return (items,info);\n  }\n\n  /* Returns all unsold market items */\n  function fetchMarketItems() public view returns (MarketItem[] memory,AuctionInfo[] memory) {\n    uint itemCount = _itemIds.current();\n    uint unsoldItemCount = _itemIds.current() - _itemsSold.current();\n    uint currentIndex = 0;\n\n    MarketItem[] memory items = new MarketItem[](unsoldItemCount);\n    AuctionInfo[] memory info = new AuctionInfo[](unsoldItemCount);\n    for (uint i = 0; i < itemCount; i++) {\n      if (!idToMarketItem[i + 1].sold) {\n        uint currentId = i + 1;\n        MarketItem storage currentItem = idToMarketItem[currentId];\n        AuctionInfo storage currentInfo = auctionData[currentId];\n        items[currentIndex] = currentItem;\n        info[currentIndex] = currentInfo;\n        currentIndex += 1;\n      }\n    }\n    return (items,info);\n  }\n\n  /* Returns only items that a user has purchased */\n  function fetchMyNFTs() public view returns (MarketItem[] memory) {\n    uint totalItemCount = _itemIds.current();\n    uint itemCount = 0;\n    uint currentIndex = 0;\n\n    for (uint i = 0; i < totalItemCount; i++) {\n      if (idToMarketItem[i + 1].owner == msg.sender) {\n        itemCount += 1;\n      }\n    }\n\n    MarketItem[] memory items = new MarketItem[](itemCount);\n    for (uint i = 0; i < totalItemCount; i++) {\n      if (idToMarketItem[i + 1].owner == msg.sender) {\n        uint currentId = i + 1;\n        MarketItem storage currentItem = idToMarketItem[currentId];\n        items[currentIndex] = currentItem;\n        currentIndex += 1;\n      }\n    }\n    return items;\n  }\n\n  /* Returns only items a user has created */\n  function fetchItemsCreated() public view returns (MarketItem[] memory) {\n    uint totalItemCount = _itemIds.current();\n    uint itemCount = 0;\n    uint currentIndex = 0;\n\n    for (uint i = 0; i < totalItemCount; i++) {\n      if (idToMarketItem[i + 1].seller == msg.sender) {\n        itemCount += 1;\n      }\n    }\n\n    MarketItem[] memory items = new MarketItem[](itemCount);\n    for (uint i = 0; i < totalItemCount; i++) {\n      if (idToMarketItem[i + 1].seller == msg.sender) {\n        uint currentId = i + 1;\n        MarketItem storage currentItem = idToMarketItem[currentId];\n        items[currentIndex] = currentItem;\n        currentIndex += 1;\n      }\n    }\n    return items;\n    }\n\n    function unlistItem(uint itemId) external nonReentrant{\n        require(!idToMarketItem[itemId].sold,\"Sold items can't be unlisted\");\n        require(idToMarketItem[itemId].seller == msg.sender,\"Sender is not lister\");\n        if(idToMarketItem[itemId].isAuction){\n            AuctionInfo storage info = auctionData[itemId];\n            if(info.highestBid > 0){\n                payable(info.highestBidder).transfer(info.highestBid);\n            }\n            delete auctionData[itemId];\n        }\n        IERC721(idToMarketItem[itemId].nftContract).transferFrom(address(this),msg.sender,idToMarketItem[itemId].tokenId);\n        delete idToMarketItem[itemId];\n        idToMarketItem[itemId].sold = true;\n        _itemsSold.increment();\n        emit MarketItemUnlisted(\n        itemId\n        );\n    }\n}",
  "sourcePath": "/home/nghiata/Workspace/Blockchain/near/picasarts--aurora/contracts/MarketPlace.sol",
  "compiler": {
    "name": "solc",
    "version": "0.8.0+commit.c7dfd78e.Emscripten.clang"
  },
  "schemaVersion": "3.4.4",
  "updatedAt": "2022-02-18T07:06:40.932Z",
  "networkType": "ethereum",
  "devdoc": {
    "kind": "dev",
    "methods": {},
    "version": 1
  },
  "userdoc": {
    "kind": "user",
    "methods": {},
    "version": 1
  }
}