{
  "contractName": "ReefRoyalty",
  "abi": [
    {
      "inputs": [
        {
          "internalType": "string",
          "name": "name_",
          "type": "string"
        },
        {
          "internalType": "string",
          "name": "symbol_",
          "type": "string"
        },
        {
          "internalType": "address",
          "name": "creator_",
          "type": "address"
        }
      ],
      "stateMutability": "nonpayable",
      "type": "constructor"
    },
    {
      "anonymous": false,
      "inputs": [
        {
          "indexed": true,
          "internalType": "address",
          "name": "owner",
          "type": "address"
        },
        {
          "indexed": true,
          "internalType": "address",
          "name": "approved",
          "type": "address"
        },
        {
          "indexed": true,
          "internalType": "uint256",
          "name": "tokenId",
          "type": "uint256"
        }
      ],
      "name": "Approval",
      "type": "event"
    },
    {
      "anonymous": false,
      "inputs": [
        {
          "indexed": true,
          "internalType": "address",
          "name": "owner",
          "type": "address"
        },
        {
          "indexed": true,
          "internalType": "address",
          "name": "operator",
          "type": "address"
        },
        {
          "indexed": false,
          "internalType": "bool",
          "name": "approved",
          "type": "bool"
        }
      ],
      "name": "ApprovalForAll",
      "type": "event"
    },
    {
      "anonymous": false,
      "inputs": [
        {
          "indexed": true,
          "internalType": "address",
          "name": "previousOwner",
          "type": "address"
        },
        {
          "indexed": true,
          "internalType": "address",
          "name": "newOwner",
          "type": "address"
        }
      ],
      "name": "OwnershipTransferred",
      "type": "event"
    },
    {
      "anonymous": false,
      "inputs": [
        {
          "indexed": true,
          "internalType": "address",
          "name": "from",
          "type": "address"
        },
        {
          "indexed": true,
          "internalType": "address",
          "name": "to",
          "type": "address"
        },
        {
          "indexed": true,
          "internalType": "uint256",
          "name": "tokenId",
          "type": "uint256"
        }
      ],
      "name": "Transfer",
      "type": "event"
    },
    {
      "inputs": [
        {
          "internalType": "address",
          "name": "to",
          "type": "address"
        },
        {
          "internalType": "uint256",
          "name": "tokenId",
          "type": "uint256"
        }
      ],
      "name": "approve",
      "outputs": [],
      "stateMutability": "nonpayable",
      "type": "function"
    },
    {
      "inputs": [
        {
          "internalType": "address",
          "name": "owner",
          "type": "address"
        }
      ],
      "name": "balanceOf",
      "outputs": [
        {
          "internalType": "uint256",
          "name": "",
          "type": "uint256"
        }
      ],
      "stateMutability": "view",
      "type": "function",
      "constant": true
    },
    {
      "inputs": [
        {
          "internalType": "uint256",
          "name": "tokenId",
          "type": "uint256"
        }
      ],
      "name": "getApproved",
      "outputs": [
        {
          "internalType": "address",
          "name": "",
          "type": "address"
        }
      ],
      "stateMutability": "view",
      "type": "function",
      "constant": true
    },
    {
      "inputs": [
        {
          "internalType": "address",
          "name": "owner",
          "type": "address"
        },
        {
          "internalType": "address",
          "name": "operator",
          "type": "address"
        }
      ],
      "name": "isApprovedForAll",
      "outputs": [
        {
          "internalType": "bool",
          "name": "",
          "type": "bool"
        }
      ],
      "stateMutability": "view",
      "type": "function",
      "constant": true
    },
    {
      "inputs": [],
      "name": "name",
      "outputs": [
        {
          "internalType": "string",
          "name": "",
          "type": "string"
        }
      ],
      "stateMutability": "view",
      "type": "function",
      "constant": true
    },
    {
      "inputs": [],
      "name": "owner",
      "outputs": [
        {
          "internalType": "address",
          "name": "",
          "type": "address"
        }
      ],
      "stateMutability": "view",
      "type": "function",
      "constant": true
    },
    {
      "inputs": [
        {
          "internalType": "uint256",
          "name": "tokenId",
          "type": "uint256"
        }
      ],
      "name": "ownerOf",
      "outputs": [
        {
          "internalType": "address",
          "name": "",
          "type": "address"
        }
      ],
      "stateMutability": "view",
      "type": "function",
      "constant": true
    },
    {
      "inputs": [],
      "name": "renounceOwnership",
      "outputs": [],
      "stateMutability": "nonpayable",
      "type": "function"
    },
    {
      "inputs": [
        {
          "internalType": "address",
          "name": "from",
          "type": "address"
        },
        {
          "internalType": "address",
          "name": "to",
          "type": "address"
        },
        {
          "internalType": "uint256",
          "name": "tokenId",
          "type": "uint256"
        }
      ],
      "name": "safeTransferFrom",
      "outputs": [],
      "stateMutability": "nonpayable",
      "type": "function"
    },
    {
      "inputs": [
        {
          "internalType": "address",
          "name": "from",
          "type": "address"
        },
        {
          "internalType": "address",
          "name": "to",
          "type": "address"
        },
        {
          "internalType": "uint256",
          "name": "tokenId",
          "type": "uint256"
        },
        {
          "internalType": "bytes",
          "name": "_data",
          "type": "bytes"
        }
      ],
      "name": "safeTransferFrom",
      "outputs": [],
      "stateMutability": "nonpayable",
      "type": "function"
    },
    {
      "inputs": [
        {
          "internalType": "address",
          "name": "operator",
          "type": "address"
        },
        {
          "internalType": "bool",
          "name": "approved",
          "type": "bool"
        }
      ],
      "name": "setApprovalForAll",
      "outputs": [],
      "stateMutability": "nonpayable",
      "type": "function"
    },
    {
      "inputs": [],
      "name": "symbol",
      "outputs": [
        {
          "internalType": "string",
          "name": "",
          "type": "string"
        }
      ],
      "stateMutability": "view",
      "type": "function",
      "constant": true
    },
    {
      "inputs": [
        {
          "internalType": "uint256",
          "name": "index",
          "type": "uint256"
        }
      ],
      "name": "tokenByIndex",
      "outputs": [
        {
          "internalType": "uint256",
          "name": "",
          "type": "uint256"
        }
      ],
      "stateMutability": "view",
      "type": "function",
      "constant": true
    },
    {
      "inputs": [
        {
          "internalType": "address",
          "name": "owner",
          "type": "address"
        },
        {
          "internalType": "uint256",
          "name": "index",
          "type": "uint256"
        }
      ],
      "name": "tokenOfOwnerByIndex",
      "outputs": [
        {
          "internalType": "uint256",
          "name": "",
          "type": "uint256"
        }
      ],
      "stateMutability": "view",
      "type": "function",
      "constant": true
    },
    {
      "inputs": [],
      "name": "totalSupply",
      "outputs": [
        {
          "internalType": "uint256",
          "name": "",
          "type": "uint256"
        }
      ],
      "stateMutability": "view",
      "type": "function",
      "constant": true
    },
    {
      "inputs": [
        {
          "internalType": "address",
          "name": "from",
          "type": "address"
        },
        {
          "internalType": "address",
          "name": "to",
          "type": "address"
        },
        {
          "internalType": "uint256",
          "name": "tokenId",
          "type": "uint256"
        }
      ],
      "name": "transferFrom",
      "outputs": [],
      "stateMutability": "nonpayable",
      "type": "function"
    },
    {
      "inputs": [
        {
          "internalType": "address",
          "name": "newOwner",
          "type": "address"
        }
      ],
      "name": "transferOwnership",
      "outputs": [],
      "stateMutability": "nonpayable",
      "type": "function"
    },
    {
      "stateMutability": "payable",
      "type": "receive",
      "payable": true
    },
    {
      "inputs": [
        {
          "internalType": "string",
          "name": "metaHash",
          "type": "string"
        },
        {
          "internalType": "uint256",
          "name": "royalty_",
          "type": "uint256"
        }
      ],
      "name": "mint",
      "outputs": [],
      "stateMutability": "nonpayable",
      "type": "function"
    },
    {
      "inputs": [
        {
          "internalType": "uint256",
          "name": "_tokenId",
          "type": "uint256"
        }
      ],
      "name": "getTokenRoyalty",
      "outputs": [
        {
          "internalType": "uint256",
          "name": "",
          "type": "uint256"
        }
      ],
      "stateMutability": "view",
      "type": "function",
      "constant": true
    },
    {
      "inputs": [
        {
          "internalType": "uint256",
          "name": "_tokenId",
          "type": "uint256"
        },
        {
          "internalType": "uint256",
          "name": "_salePrice",
          "type": "uint256"
        }
      ],
      "name": "royaltyInfo",
      "outputs": [
        {
          "internalType": "address",
          "name": "receiver",
          "type": "address"
        },
        {
          "internalType": "uint256",
          "name": "royaltyAmount",
          "type": "uint256"
        }
      ],
      "stateMutability": "view",
      "type": "function",
      "constant": true
    },
    {
      "inputs": [],
      "name": "withdraw",
      "outputs": [],
      "stateMutability": "nonpayable",
      "type": "function"
    },
    {
      "inputs": [],
      "name": "getCreator",
      "outputs": [
        {
          "internalType": "address",
          "name": "",
          "type": "address"
        }
      ],
      "stateMutability": "view",
      "type": "function",
      "constant": true
    },
    {
      "inputs": [
        {
          "internalType": "uint256",
          "name": "tokenId",
          "type": "uint256"
        }
      ],
      "name": "tokenURI",
      "outputs": [
        {
          "internalType": "string",
          "name": "",
          "type": "string"
        }
      ],
      "stateMutability": "view",
      "type": "function",
      "constant": true
    },
    {
      "inputs": [
        {
          "internalType": "bytes4",
          "name": "interfaceId",
          "type": "bytes4"
        }
      ],
      "name": "supportsInterface",
      "outputs": [
        {
          "internalType": "bool",
          "name": "",
          "type": "bool"
        }
      ],
      "stateMutability": "view",
      "type": "function",
      "constant": true
    }
  ],
  "bytecode": "0x60806040523480156200001157600080fd5b506040516200287c3803806200287c833981016040819052620000349162000246565b828260006200004b640100000000620000f1810204565b60008054600160a060020a031916600160a060020a0383169081178255604051929350917f8be0079c531659141344cd1fd0a4f28419497f9722a3daafe3b4186f6b6457e0908290a350600180558151620000ae906002906020850190620000f5565b508051620000c4906003906020840190620000f5565b5050600d8054600160a060020a031916600160a060020a0393909316929092179091555062000354915050565b3390565b8280546200010390620002cf565b90600052602060002090601f01602090048101928262000127576000855562000172565b82601f106200014257805160ff191683800117855562000172565b8280016001018555821562000172579182015b828111156200017257825182559160200191906001019062000155565b506200018092915062000184565b5090565b5b8082111562000180576000815560010162000185565b600082601f830112620001ac578081fd5b81516001604060020a0380821115620001c957620001c962000325565b6040516020601f8401601f1916820181018381118382101715620001f157620001f162000325565b604052838252858401810187101562000208578485fd5b8492505b838310156200022b57858301810151828401820152918201916200020c565b838311156200023c57848185840101525b5095945050505050565b6000806000606084860312156200025b578283fd5b83516001604060020a038082111562000272578485fd5b62000280878388016200019b565b9450602086015191508082111562000296578384fd5b50620002a5868287016200019b565b60408601519093509050600160a060020a0381168114620002c4578182fd5b809150509250925092565b600281046001821680620002e457607f821691505b602082108114156200031f577f4e487b7100000000000000000000000000000000000000000000000000000000600052602260045260246000fd5b50919050565b7f4e487b7100000000000000000000000000000000000000000000000000000000600052604160045260246000fd5b61251880620003646000396000f3fe60806040526004361061016c576000357c0100000000000000000000000000000000000000000000000000000000900480634f6ccce7116100d357806395d89b411161008c57806395d89b41146103c3578063a22cb465146103d8578063b88d4fde146103f8578063c87b56dd14610418578063e985e9c514610438578063f2fde38b1461045857610173565b80634f6ccce7146103195780636352211e1461033957806370a0823114610359578063715018a614610379578063833b7b781461038e5780638da5cb5b146103ae57610173565b806318160ddd1161012557806318160ddd1461025457806323b872dd146102765780632a55205a146102965780632f745c59146102c45780633ccfd60b146102e457806342842e0e146102f957610173565b806301ffc9a714610178578063056b01ce146101ae57806306fdde03146101d0578063081812fc146101f2578063095ea7b31461021f5780630ee2cb101461023f57610173565b3661017357005b600080fd5b34801561018457600080fd5b50610198610193366004611ab2565b610478565b6040516101a59190611c5a565b60405180910390f35b3480156101ba57600080fd5b506101ce6101c9366004611aea565b610526565b005b3480156101dc57600080fd5b506101e56105d1565b6040516101a59190611c65565b3480156101fe57600080fd5b5061021261020d366004611b5d565b610663565b6040516101a59190611bf1565b34801561022b57600080fd5b506101ce61023a366004611a89565b6106a9565b34801561024b57600080fd5b50610212610747565b34801561026057600080fd5b50610269610756565b6040516101a5919061237d565b34801561028257600080fd5b506101ce610291366004611948565b61075c565b3480156102a257600080fd5b506102b66102b1366004611b75565b610797565b6040516101a5929190611c41565b3480156102d057600080fd5b506102696102df366004611a89565b6107d5565b3480156102f057600080fd5b506101ce61082a565b34801561030557600080fd5b506101ce610314366004611948565b610894565b34801561032557600080fd5b50610269610334366004611b5d565b6108af565b34801561034557600080fd5b50610212610354366004611b5d565b610910565b34801561036557600080fd5b50610269610374366004611905565b610948565b34801561038557600080fd5b506101ce61098f565b34801561039a57600080fd5b506102696103a9366004611b5d565b610a28565b3480156103ba57600080fd5b50610212610a3a565b3480156103cf57600080fd5b506101e5610a49565b3480156103e457600080fd5b506101ce6103f3366004611a4f565b610a58565b34801561040457600080fd5b506101ce610413366004611983565b610b29565b34801561042457600080fd5b506101e5610433366004611b5d565b610b6b565b34801561044457600080fd5b5061019861045336600461191f565b610b76565b34801561046457600080fd5b506101ce610473366004611905565b610ba4565b6000600160e060020a031982167f80ac58cd0000000000000000000000000000000000000000000000000000000014806104db5750600160e060020a031982167f780e9d6300000000000000000000000000000000000000000000000000000000145b8061050f5750600160e060020a031982167f2a55205a00000000000000000000000000000000000000000000000000000000145b8061051e575061051e82610c77565b90505b919050565b600d54600160a060020a0316331461055c5760405160e560020a62461bcd02815260040161055390611f14565b60405180910390fd5b610566600e610cb5565b6000610572600e610cbe565b905061057e3382610cc2565b6105be8185858080601f016020809104026020016040519081016040528093929190818152602001838380828437600092019190915250610db492505050565b6000908152600f60205260409020555050565b6060600280546105e090612414565b80601f016020809104026020016040519081016040528092919081815260200182805461060c90612414565b80156106595780601f1061062e57610100808354040283529160200191610659565b820191906000526020600020905b81548152906001019060200180831161063c57829003601f168201915b5050505050905090565b600061066e82610dfb565b61068d5760405160e560020a62461bcd0281526004016105539061211a565b50600090815260066020526040902054600160a060020a031690565b60006106b482610910565b905080600160a060020a031683600160a060020a031614156106eb5760405160e560020a62461bcd02815260040161055390612266565b80600160a060020a03166106fd610e18565b600160a060020a03161480610719575061071981610453610e18565b6107385760405160e560020a62461bcd02815260040161055390611eb7565b6107428383610e1c565b505050565b600d54600160a060020a031690565b600a5490565b61076d610767610e18565b82610e97565b61078c5760405160e560020a62461bcd028152600401610553906122c3565b610742838383610f1f565b600d546000838152600f6020526040812054600160a060020a03909216916064906107c290856123b2565b6107cc919061239e565b90509250929050565b60006107e083610948565b82106108015760405160e560020a62461bcd02815260040161055390611c78565b50600160a060020a03919091166000908152600860209081526040808320938352929052205490565b600d54600160a060020a031633146108575760405160e560020a62461bcd02815260040161055390611f14565b600d54604051600160a060020a0390911690303180156108fc02916000818181858888f19350505050158015610891573d6000803e3d6000fd5b50565b61074283838360405180602001604052806000815250610b29565b60006108b9610756565b82106108da5760405160e560020a62461bcd02815260040161055390612320565b600a82815481106108fe5760e060020a634e487b7102600052603260045260246000fd5b90600052602060002001549050919050565b600081815260046020526040812054600160a060020a03168061051e5760405160e560020a62461bcd02815260040161055390611fce565b6000600160a060020a0382166109735760405160e560020a62461bcd02815260040161055390611f71565b50600160a060020a031660009081526005602052604090205490565b610997610e18565b600160a060020a03166109a8610a3a565b600160a060020a0316146109d15760405160e560020a62461bcd02815260040161055390612177565b60008054604051600160a060020a03909116907f8be0079c531659141344cd1fd0a4f28419497f9722a3daafe3b4186f6b6457e0908390a36000805473ffffffffffffffffffffffffffffffffffffffff19169055565b6000908152600f602052604090205490565b600054600160a060020a031690565b6060600380546105e090612414565b610a60610e18565b600160a060020a031682600160a060020a03161415610a945760405160e560020a62461bcd02815260040161055390611e23565b8060076000610aa1610e18565b600160a060020a03908116825260208083019390935260409182016000908120918716808252919093529120805460ff191692151592909217909155610ae5610e18565b600160a060020a03167f17307eab39ab6107e8899845ad3d59bd9653f200f220920489ca2b5937696c3183604051610b1d9190611c5a565b60405180910390a35050565b610b3a610b34610e18565b83610e97565b610b595760405160e560020a62461bcd028152600401610553906122c3565b610b658484848461105f565b50505050565b606061051e82611095565b600160a060020a03918216600090815260076020908152604080832093909416825291909152205460ff1690565b610bac610e18565b600160a060020a0316610bbd610a3a565b600160a060020a031614610be65760405160e560020a62461bcd02815260040161055390612177565b600160a060020a038116610c0f5760405160e560020a62461bcd02815260040161055390611d32565b60008054604051600160a060020a03808516939216917f8be0079c531659141344cd1fd0a4f28419497f9722a3daafe3b4186f6b6457e091a36000805473ffffffffffffffffffffffffffffffffffffffff1916600160a060020a0392909216919091179055565b6000600160e060020a031982167f780e9d6300000000000000000000000000000000000000000000000000000000148061051e575061051e826111b1565b80546001019055565b5490565b600160a060020a038216610ceb5760405160e560020a62461bcd02815260040161055390612088565b610cf481610dfb565b15610d145760405160e560020a62461bcd02815260040161055390611d8f565b610d2060008383611223565b600160a060020a0382166000908152600560205260408120805460019290610d49908490612386565b9091555050600081815260046020526040808220805473ffffffffffffffffffffffffffffffffffffffff1916600160a060020a03861690811790915590518392907fddf252ad1be2c89b69c2b068fc378daa952ba7f163c4a11628f55a4df523b3ef908290a45050565b610dbd82610dfb565b610ddc5760405160e560020a62461bcd0281526004016105539061202b565b6000828152600c60209081526040909120825161074292840190611855565b600090815260046020526040902054600160a060020a0316151590565b3390565b6000818152600660205260409020805473ffffffffffffffffffffffffffffffffffffffff1916600160a060020a0384169081179091558190610e5e82610910565b600160a060020a03167f8c5be1e5ebec7d5bd14f71427d1e84f3dd0314c0f7b2291e5b200ac8c7c3b92560405160405180910390a45050565b6000610ea282610dfb565b610ec15760405160e560020a62461bcd02815260040161055390611e5a565b6000610ecc83610910565b905080600160a060020a031684600160a060020a03161480610f07575083600160a060020a0316610efc84610663565b600160a060020a0316145b80610f175750610f178185610b76565b949350505050565b82600160a060020a0316610f3282610910565b600160a060020a031614610f5b5760405160e560020a62461bcd028152600401610553906121ac565b600160a060020a038216610f845760405160e560020a62461bcd02815260040161055390611dc6565b610f8f838383611223565b610f9a600082610e1c565b600160a060020a0383166000908152600560205260408120805460019290610fc39084906123d1565b9091555050600160a060020a0382166000908152600560205260408120805460019290610ff1908490612386565b9091555050600081815260046020526040808220805473ffffffffffffffffffffffffffffffffffffffff1916600160a060020a0386811691821790925591518493918716917fddf252ad1be2c89b69c2b068fc378daa952ba7f163c4a11628f55a4df523b3ef91a4505050565b61106a848484610f1f565b6110768484848461122e565b610b655760405160e560020a62461bcd02815260040161055390611cd5565b60606110a082610dfb565b6110bf5760405160e560020a62461bcd028152600401610553906120bd565b6000828152600c6020526040812080546110d890612414565b80601f016020809104026020016040519081016040528092919081815260200182805461110490612414565b80156111515780601f1061112657610100808354040283529160200191611151565b820191906000526020600020905b81548152906001019060200180831161113457829003601f168201915b505050505090506000611162611381565b905080516000141561117657509050610521565b8151156111a8578082604051602001611190929190611bc2565b60405160208183030381529060405292505050610521565b610f1784611393565b6000600160e060020a031982167f80ac58cd0000000000000000000000000000000000000000000000000000000014806112145750600160e060020a031982167f5b5e139f00000000000000000000000000000000000000000000000000000000145b8061051e575061051e82611419565b61074283838361144b565b600061124284600160a060020a03166114d4565b156113765783600160a060020a031663150b7a0261125e610e18565b8786866040518563ffffffff167c010000000000000000000000000000000000000000000000000000000002815260040161129c9493929190611c05565b602060405180830381600087803b1580156112b657600080fd5b505af19250505080156112e6575060408051601f3d908101601f191682019092526112e391810190611ace565b60015b611343573d808015611314576040519150601f19603f3d011682016040523d82523d6000602084013e611319565b606091505b50805161133b5760405160e560020a62461bcd02815260040161055390611cd5565b805181602001fd5b600160e060020a0319167f150b7a0200000000000000000000000000000000000000000000000000000000149050610f17565b506001949350505050565b60408051602081019091526000815290565b606061139e82610dfb565b6113bd5760405160e560020a62461bcd02815260040161055390612209565b60006113c7611381565b905060008151116113e75760405180602001604052806000815250611412565b806113f1846114da565b604051602001611402929190611bc2565b6040516020818303038152906040525b9392505050565b600160e060020a031981167f01ffc9a70000000000000000000000000000000000000000000000000000000014919050565b611456838383610742565b600160a060020a0383166114725761146d8161164e565b611495565b81600160a060020a031683600160a060020a031614611495576114958382611692565b600160a060020a0382166114b1576114ac8161172f565b610742565b82600160a060020a031682600160a060020a031614610742576107428282611811565b3b151590565b60608161151b575060408051808201909152600181527f30000000000000000000000000000000000000000000000000000000000000006020820152610521565b8160005b8115611545578061152f81612452565b915061153e9050600a8361239e565b915061151f565b60008167ffffffffffffffff8111156115715760e060020a634e487b7102600052604160045260246000fd5b6040519080825280601f01601f19166020018201604052801561159b576020820181803683370190505b5090505b8415610f17576115b06001836123d1565b91506115bd600a8661246d565b6115c8906030612386565b7f01000000000000000000000000000000000000000000000000000000000000000281838151811061160d5760e060020a634e487b7102600052603260045260246000fd5b60200101907effffffffffffffffffffffffffffffffffffffffffffffffffffffffffffff1916908160001a905350611647600a8661239e565b945061159f565b600a80546000838152600b60205260408120829055600182018355919091527fc65a7bb8d6351c1cf70c95a316cc6a92839c986682d98bc35f958f4883f9d2a80155565b6000600161169f84610948565b6116a991906123d1565b6000838152600960205260409020549091508082146116fc57600160a060020a03841660009081526008602090815260408083208584528252808320548484528184208190558352600990915290208190555b506000918252600960209081526040808420849055600160a060020a039094168352600881528383209183525290812055565b600a54600090611741906001906123d1565b6000838152600b6020526040812054600a805493945090928490811061177a5760e060020a634e487b7102600052603260045260246000fd5b9060005260206000200154905080600a83815481106117ac5760e060020a634e487b7102600052603260045260246000fd5b6000918252602080832090910192909255828152600b9091526040808220849055858252812055600a8054806117f55760e060020a634e487b7102600052603160045260246000fd5b6001900381819060005260206000200160009055905550505050565b600061181c83610948565b600160a060020a039093166000908152600860209081526040808320868452825280832085905593825260099052919091209190915550565b82805461186190612414565b90600052602060002090601f01602090048101928261188357600085556118c9565b82601f1061189c57805160ff19168380011785556118c9565b828001600101855582156118c9579182015b828111156118c95782518255916020019190600101906118ae565b506118d59291506118d9565b5090565b5b808211156118d557600081556001016118da565b8035600160a060020a038116811461052157600080fd5b600060208284031215611916578081fd5b611412826118ee565b60008060408385031215611931578081fd5b61193a836118ee565b91506107cc602084016118ee565b60008060006060848603121561195c578081fd5b611965846118ee565b9250611973602085016118ee565b9150604084013590509250925092565b60008060008060808587031215611998578081fd5b6119a1856118ee565b935060206119b08187016118ee565b935060408601359250606086013567ffffffffffffffff808211156119d3578384fd5b818801915088601f8301126119e6578384fd5b8135818111156119f8576119f86124b3565b604051601f8201601f1916810185018381118282101715611a1b57611a1b6124b3565b60405281815283820185018b1015611a31578586fd5b81858501868301379081019093019390935250939692955090935050565b60008060408385031215611a61578182fd5b611a6a836118ee565b915060208301358015158114611a7e578182fd5b809150509250929050565b60008060408385031215611a9b578182fd5b611aa4836118ee565b946020939093013593505050565b600060208284031215611ac3578081fd5b8135611412816124cc565b600060208284031215611adf578081fd5b8151611412816124cc565b600080600060408486031215611afe578283fd5b833567ffffffffffffffff80821115611b15578485fd5b818601915086601f830112611b28578485fd5b813581811115611b36578586fd5b876020828501011115611b47578586fd5b6020928301989097509590910135949350505050565b600060208284031215611b6e578081fd5b5035919050565b60008060408385031215611b87578182fd5b50508035926020909101359150565b60008151808452611bae8160208601602086016123e8565b601f01601f19169290920160200192915050565b60008351611bd48184602088016123e8565b835190830190611be88183602088016123e8565b01949350505050565b600160a060020a0391909116815260200190565b6000600160a060020a03808716835280861660208401525083604083015260806060830152611c376080830184611b96565b9695505050505050565b600160a060020a03929092168252602082015260400190565b901515815260200190565b6000602082526114126020830184611b96565b6020808252602b908201527f455243373231456e756d657261626c653a206f776e657220696e646578206f7560408201527f74206f6620626f756e6473000000000000000000000000000000000000000000606082015260800190565b60208082526032908201527f4552433732313a207472616e7366657220746f206e6f6e20455243373231526560408201527f63656976657220696d706c656d656e7465720000000000000000000000000000606082015260800190565b60208082526026908201527f4f776e61626c653a206e6577206f776e657220697320746865207a65726f206160408201527f6464726573730000000000000000000000000000000000000000000000000000606082015260800190565b6020808252601c908201527f4552433732313a20746f6b656e20616c7265616479206d696e74656400000000604082015260600190565b60208082526024908201527f4552433732313a207472616e7366657220746f20746865207a65726f2061646460408201527f7265737300000000000000000000000000000000000000000000000000000000606082015260800190565b60208082526019908201527f4552433732313a20617070726f766520746f2063616c6c657200000000000000604082015260600190565b6020808252602c908201527f4552433732313a206f70657261746f7220717565727920666f72206e6f6e657860408201527f697374656e7420746f6b656e0000000000000000000000000000000000000000606082015260800190565b60208082526038908201527f4552433732313a20617070726f76652063616c6c6572206973206e6f74206f7760408201527f6e6572206e6f7220617070726f76656420666f7220616c6c0000000000000000606082015260800190565b60208082526028908201527f526f79616c747920436f6e7472616374203a2043616c6c6572206973206e6f7460408201527f2063726561746f72000000000000000000000000000000000000000000000000606082015260800190565b6020808252602a908201527f4552433732313a2062616c616e636520717565727920666f7220746865207a6560408201527f726f206164647265737300000000000000000000000000000000000000000000606082015260800190565b60208082526029908201527f4552433732313a206f776e657220717565727920666f72206e6f6e657869737460408201527f656e7420746f6b656e0000000000000000000000000000000000000000000000606082015260800190565b6020808252602e908201527f45524337323155524953746f726167653a2055524920736574206f66206e6f6e60408201527f6578697374656e7420746f6b656e000000000000000000000000000000000000606082015260800190565b6020808252818101527f4552433732313a206d696e7420746f20746865207a65726f2061646472657373604082015260600190565b60208082526031908201527f45524337323155524953746f726167653a2055524920717565727920666f722060408201527f6e6f6e6578697374656e7420746f6b656e000000000000000000000000000000606082015260800190565b6020808252602c908201527f4552433732313a20617070726f76656420717565727920666f72206e6f6e657860408201527f697374656e7420746f6b656e0000000000000000000000000000000000000000606082015260800190565b6020808252818101527f4f776e61626c653a2063616c6c6572206973206e6f7420746865206f776e6572604082015260600190565b60208082526029908201527f4552433732313a207472616e73666572206f6620746f6b656e2074686174206960408201527f73206e6f74206f776e0000000000000000000000000000000000000000000000606082015260800190565b6020808252602f908201527f4552433732314d657461646174613a2055524920717565727920666f72206e6f60408201527f6e6578697374656e7420746f6b656e0000000000000000000000000000000000606082015260800190565b60208082526021908201527f4552433732313a20617070726f76616c20746f2063757272656e74206f776e6560408201527f7200000000000000000000000000000000000000000000000000000000000000606082015260800190565b60208082526031908201527f4552433732313a207472616e736665722063616c6c6572206973206e6f74206f60408201527f776e6572206e6f7220617070726f766564000000000000000000000000000000606082015260800190565b6020808252602c908201527f455243373231456e756d657261626c653a20676c6f62616c20696e646578206f60408201527f7574206f6620626f756e64730000000000000000000000000000000000000000606082015260800190565b90815260200190565b6000821982111561239957612399612481565b500190565b6000826123ad576123ad61249a565b500490565b60008160001904831182151516156123cc576123cc612481565b500290565b6000828210156123e3576123e3612481565b500390565b60005b838110156124035781810151838201526020016123eb565b83811115610b655750506000910152565b60028104600182168061242857607f821691505b6020821081141561244c5760e060020a634e487b7102600052602260045260246000fd5b50919050565b600060001982141561246657612466612481565b5060010190565b60008261247c5761247c61249a565b500690565b60e060020a634e487b7102600052601160045260246000fd5b60e060020a634e487b7102600052601260045260246000fd5b60e060020a634e487b7102600052604160045260246000fd5b600160e060020a03198116811461089157600080fdfea2646970667358221220fd4c6deafe308a75dc744ca4da9e5154a1731608cdf9e436964e3a2a91be58b264736f6c63430008000033",
  "immutableReferences": {},
  "source": "//SPDX-License-Identifier: MIT\npragma solidity ^0.8.0;\n\nimport \"@openzeppelin/contracts/utils/Counters.sol\";\nimport \"@openzeppelin/contracts/token/ERC721/extensions/ERC721URIStorage.sol\";\nimport \"@openzeppelin/contracts/access/Ownable.sol\";\nimport \"@openzeppelin/contracts/security/ReentrancyGuard.sol\";\nimport \"@openzeppelin/contracts/token/ERC721/extensions/ERC721Enumerable.sol\";\nimport \"./IRRoyalty.sol\";\n\ncontract ReefRoyalty is Ownable,ReentrancyGuard,ERC721Enumerable,ERC721URIStorage{\n    \n    address creator;\n    \n    using Counters for Counters.Counter;\n    Counters.Counter private tokenId_;\n  \n    \n     mapping(uint=>uint) royalty;\n\n     modifier onlyCreator() {\n         require(msg.sender == creator,\"Royalty Contract : Caller is not creator\");\n         _;\n     }\n     \n    constructor(string memory name_,string memory symbol_,address creator_) ERC721(name_,symbol_) {\n        creator = creator_;\n    }\n    \n    \n    function mint(string calldata metaHash,uint256 royalty_) external onlyCreator() {\n        tokenId_.increment();\n        uint256 tokenId = tokenId_.current();\n        _mint(msg.sender,tokenId);\n        _setTokenURI(tokenId,metaHash);\n        royalty[tokenId] = royalty_;\n    }\n    \n    function getTokenRoyalty(uint256 _tokenId) external view returns(uint256){\n        return royalty[_tokenId];\n    }\n    \n    function royaltyInfo(uint256 _tokenId,uint256 _salePrice) external view returns (\n        address receiver,\n        uint256 royaltyAmount\n    ){\n        receiver = creator;\n        royaltyAmount = (_salePrice*royalty[_tokenId])/100;\n    }\n    \n    receive() external payable{\n        \n    }\n    \n    function withdraw() external onlyCreator{\n        payable(creator).transfer(address(this).balance);\n    }\n    \n    function getCreator() external view returns(address){\n        return creator;\n    }\n    \n     function _beforeTokenTransfer(address from, address to, uint256 tokenId)\n        internal\n        override(ERC721, ERC721Enumerable)\n    {\n        super._beforeTokenTransfer(from, to, tokenId);\n    }\n\n    function _burn(uint256 tokenId) internal override(ERC721, ERC721URIStorage) {\n        super._burn(tokenId);\n    }\n    \n    function tokenURI(uint256 tokenId)\n        public\n        view\n        override(ERC721, ERC721URIStorage)\n        returns (string memory)\n    {\n        return super.tokenURI(tokenId);\n    }\n\n    function supportsInterface(bytes4 interfaceId) public view virtual override(ERC721,ERC721Enumerable) returns (bool) {\n        return\n            interfaceId == type(IERC721).interfaceId ||\n            interfaceId == type(IERC721Enumerable).interfaceId ||\n            interfaceId == type(IERC2981).interfaceId ||\n            super.supportsInterface(interfaceId);\n    }\n\n}",
  "sourcePath": "/home/nghiata/Workspace/Blockchain/near/picasarts--aurora/contracts/ReefRoyalty.sol",
  "compiler": {
    "name": "solc",
    "version": "0.8.0+commit.c7dfd78e.Emscripten.clang"
  },
  "schemaVersion": "3.4.4",
  "updatedAt": "2022-02-18T07:06:40.960Z",
  "networkType": "ethereum",
  "devdoc": {
    "kind": "dev",
    "methods": {
      "approve(address,uint256)": {
        "details": "See {IERC721-approve}."
      },
      "balanceOf(address)": {
        "details": "See {IERC721-balanceOf}."
      },
      "getApproved(uint256)": {
        "details": "See {IERC721-getApproved}."
      },
      "isApprovedForAll(address,address)": {
        "details": "See {IERC721-isApprovedForAll}."
      },
      "name()": {
        "details": "See {IERC721Metadata-name}."
      },
      "owner()": {
        "details": "Returns the address of the current owner."
      },
      "ownerOf(uint256)": {
        "details": "See {IERC721-ownerOf}."
      },
      "renounceOwnership()": {
        "details": "Leaves the contract without owner. It will not be possible to call `onlyOwner` functions anymore. Can only be called by the current owner. NOTE: Renouncing ownership will leave the contract without an owner, thereby removing any functionality that is only available to the owner."
      },
      "safeTransferFrom(address,address,uint256)": {
        "details": "See {IERC721-safeTransferFrom}."
      },
      "safeTransferFrom(address,address,uint256,bytes)": {
        "details": "See {IERC721-safeTransferFrom}."
      },
      "setApprovalForAll(address,bool)": {
        "details": "See {IERC721-setApprovalForAll}."
      },
      "symbol()": {
        "details": "See {IERC721Metadata-symbol}."
      },
      "tokenByIndex(uint256)": {
        "details": "See {IERC721Enumerable-tokenByIndex}."
      },
      "tokenOfOwnerByIndex(address,uint256)": {
        "details": "See {IERC721Enumerable-tokenOfOwnerByIndex}."
      },
      "totalSupply()": {
        "details": "See {IERC721Enumerable-totalSupply}."
      },
      "transferFrom(address,address,uint256)": {
        "details": "See {IERC721-transferFrom}."
      },
      "transferOwnership(address)": {
        "details": "Transfers ownership of the contract to a new account (`newOwner`). Can only be called by the current owner."
      }
    },
    "version": 1
  },
  "userdoc": {
    "kind": "user",
    "methods": {},
    "version": 1
  }
}